:020000041000EA
:10000000002008205D0100101B0100101D010010E0
:100010001101001011010010110100101101001058
:100020001901001019010010190100101F01001022
:10003000110100101901001021010010230100100E
:100040001101001011010010110100101101001028
:100050001101001011010010110100101101001018
:100060001101001011010010110100101101001008
:1000700011010010110100101101001011010010F8
:1000800011010010110100101101001011010010E8
:1000900011010010110100101101001011010010D8
:1000A00011010010110100101101001011010010C8
:1000B00011010010110100101101001011010010B8
:1000C00011010010110100101101001011010010A8
:1000D0001101001011010010110100101101001098
:1000E0001101001011010010110100101101001088
:1000F0001101001011010010110100101101001078
:100100001101001011010010110100101101001067
:10011000EFF30580103800BE00BE00BE00BE00BE7A
:1001200000BE00BEF2EB8871D48D1210F88D121053
:10013000A001001090A31AE7D3DEFFFF42012110B7
:10014000FF010000C0D81200793512AB4FF000005B
:100150001E49086006C881F3088810474FF05040D8
:10016000006810B14FF00000F2E70DA40ECC00299A
:1001700002D000F012F8F9E71549164A002000E015
:1001800001C19142FCD11449884714498847144958
:10019000884700BEFDE701C901C29A42FBD3704700
:1001A000F88D121020010020204D0020F8D91210E7
:1001B0000000082000000820F8D9121000100820C4
:1001C00000100820000000007047000008ED00E06B
:1001D000204D0020F438022065F407105902001069
:1001E0005DF40710F8B500BF064B0749C91A89101E
:1001F00048BF0131491003D0044B0BB101481847E7
:10020000704700BF204D0020204D0020000000005E
:1002100008B5054B1BB105490548AFF30080BDE8A3
:100220000840FFF7E1BF00BF00000000C415022036
:1002300080C3091010B5054C82F0CEFF206802F093
:1002400081FF2068BDE8104003F0CEB8A45600201E
:1002500008B59AF043F9000070B54FF487607DF05F
:10026000FBFC0025044603F075F9C4E9CA55C4F83F
:10027000305304F57E7000F075FD164E04F21C43F9
:10028000C4F82434C4F8283484F81C54C4F8205426
:10029000C4F82C54C4F83054C4F8345414203460D6
:1002A0007DF0DAFC05460C4C02F044FF3068256016
:1002B00002F04EF9094882F06BFF23681B7C23B9DA
:1002C00000BF23681B7C002BFAD0306800F0C4FE0E
:1002D000002070BDA0560020A4560020350200105A
:1002E000704700BF90F82C00704700BF704700BFF8
:1002F00090F82C00704700BF704700BF90F82C00AA
:10030000704700BF704700BF90F82C00704700BFD7
:10031000704700BF90F82C00704700BF704700BFC7
:10032000C079704710B44FF0010C00240A680368CC
:1003300051799279C3F8344483F830C45DF8044BA2
:1003400083F8311483F83324704700BF4FF0010C59
:100350000A680368926883F833C4C3F8342470478A
:1003600000B5094883B092F0FDFC074892F0CEFC3E
:10037000054B3C3B1846019392F0F4FC019803B006
:100380005DF804EB92F0C2BC2C2C012010B50446A1
:1003900008217DF069FC204610BD00BF10B5044661
:1003A00030217DF061FC204610BD00BF10B5044631
:1003B00030217DF059FC204610BD00BF10B5044629
:1003C00030217DF051FC204610BD00BF10B5044621
:1003D00030217DF049FC204610BD00BF10B5044619
:1003E00030217DF041FC204610BD00BF034B186852
:1003F00018B19968091A7DF037BC70479C2B012011
:100400002DE9F041DFF86880D8E90067BE4218D0D6
:10041000D6E90145AC4209D0A368DBB121462046AC
:10042000032210349847A542F6D17568BDB1F16832
:100430002846491B10367DF017FCB742E8D1D8F8A2
:10044000007097B1D8F808103846C91BBDE8F041D4
:100450007DF00ABC1034A542DED17568E6E710369F
:10046000B742D5D1D8F80070EBE7BDE8F08100BF06
:10047000702B012070B50D46018AAB6804468B4293
:10048000164608D0428A934205D01E4BD3E900237A
:10049000C0E9062370BDD4E9060150EA01030FD07C
:1004A000194B5A6A9142F5D89B6A83421FD3AB68B5
:1004B000228A93421ED0628A9342EBD113481BE0FA
:1004C0007AF0F8FC4FF0FF3C6FF00042104BC01880
:1004D00041F10001844572EB01033CBF11466046C7
:1004E000094BC4E906015A6A9142D3D8DCE791422C
:1004F000DDD1CFE726B90748BDE8704025F026BD1D
:100500000548F9E760EB0A1000000B40E1E437F71B
:1005100000093D00A58477E7CD66D543012A06D0C2
:10052000022A0AD0032A00D022B1002070470160BD
:10053000002070470260002070470B6803600020B5
:10054000704700BF012A06D0022A0AD0032A00D031
:1005500022B1002070470160002070470260002037
:1005600070470B6803600020704700BF01232DE92E
:10057000F04F00244FF07E55924600F1180287B0EC
:100580000646C0E9002300F11003C0E90244C0E9B7
:10059000054405610F46184621460293039298F0E0
:1005A00031F97368984213D90128054600F0F580A7
:1005B000B0F1005F80F0E5804FEA800840467DF0B2
:1005C0004BFB2146424604469AF088FDC6E90045A9
:1005D000BA4512D0F1680837B94637F8084C0029F7
:1005E00043D1B36813B90BE01B684BB19A88A242A0
:1005F000FAD1CA4507F10807EED107B0BDE8F08F80
:100600007368B4FBF3F503FB15450C207DF024FB68
:100610000123009337F8083C804683800023036061
:1006200057F8043C029983607268F36804A898F054
:1006300047F99DF81030002B47D1D6F800B05BF891
:1006400025300BEB8502002B7CD01B68C8F80030EE
:100650005BF82530C3F80080F168CA4501F101015B
:10066000F16007F10807B7D1C7E7D6E90010B4FB7E
:10067000F0FC0D4600FB1C4C55F82C1019B30A6811
:1006800093889646A3420DD0DEF80020DAB1938815
:100690007146B3FBF0FE00FB1E3EE64513D1A342BC
:1006A0009646F1D10B6873B1D14507F10807A4D084
:1006B00037F8084CB946B4FBF0FC00FB1C4C55F86D
:1006C0002C100029DBD165469FE7059D012D5DD0EB
:1006D000B5F1005F55D24FEA850B58467DF0BCFA64
:1006E0005A46002183469AF0F9FC0023B068B360B3
:1006F000A0B14FF0000E06F1080C02469388006886
:10070000B3FBF5F105FB11335BF8231061B3096806
:1007100011605BF823301A600028EED1D6E90001A1
:10072000039B834202D089007DF09EFAB4FBF5F36F
:10073000C6E900B505FB13455BF825300BEB8502D8
:10074000002B82D1B368C6F80880C8F800303BB1EE
:100750009B887068B3FBF0F100FB11334BF82380EA
:1007600006F10803136077E7B1681160B2604BF8D7
:1007700023C0116809B14BF82E209E460028BCD139
:10078000CCE7B5F1804F06D397F08AFF0023DDF860
:100790000CB0B361A9E797F073FFB461039C15E750
:1007A00001232DE9F04F00244FF07E55924600F1D1
:1007B000180287B00646C0E9002300F11003C0E923
:1007C0000244C0E9054405610F46184621460293DC
:1007D000039298F017F87368984213D901280546D8
:1007E00000F0F980B0F1005F80F0E9804FEA800806
:1007F00040467DF031FA2146424604469AF06EFCAE
:10080000C6E90045BA4512D0F1680837B94637F84D
:10081000084C002947D1B36813B90BE01B684BB1F2
:100820009A88A242FAD1CA4507F10807EED107B06B
:10083000BDE8F08F7368B4FBF3F503FB15450C209E
:100840007DF00AFA0123009337F8083C8046838044
:100850000023036057F8063C0299C0F8063037F8C9
:10086000023C72684381F36804A898F029F89DF867
:100870001030002B47D1D6F800B05BF825300BEBD9
:100880008502002B7CD01B68C8F800305BF825304F
:10089000C3F80080F168CA4501F10101F16007F178
:1008A0000807B3D1C3E7D6E90010B4FBF0FC0D464E
:1008B00000FB1C4C55F82C1019B30A689388964617
:1008C000A3420DD0DEF80020DAB193887146B3FB65
:1008D000F0FE00FB1E3EE64513D1A3429646F1D141
:1008E0000B6873B1D14507F10807A0D037F8084C61
:1008F000B946B4FBF0FC00FB1C4C55F82C10002949
:10090000DBD165469BE7059D012D5DD0B5F1005F0C
:1009100055D24FEA850B58467DF09EF95A46002184
:1009200083469AF0DBFB0023B068B360A0B14FF0C0
:10093000000E06F1080C024693880068B3FBF5F13F
:1009400005FB11335BF8231061B3096811605BF894
:1009500023301A600028EED1D6E90001039B8342C0
:1009600002D089007DF080F9B4FBF5F3C6E900B54B
:1009700005FB13455BF825300BEB8502002B82D17C
:10098000B368C6F80880C8F800303BB19B8870682F
:10099000B3FBF0F100FB11334BF8238006F10803A1
:1009A000136077E7B1681160B2604BF823C011683B
:1009B00009B14BF82E209E460028BCD1CCE7B5F1FA
:1009C000804F06D397F06CFE0023DDF80CB0B361C6
:1009D000A9E797F055FEB461039C11E738B50B4DBC
:1009E000D5E8AF3F13F0010401D0094838BD2846CF
:1009F00097F04CFC0028F8D0054B2846C3E9014489
:100A00001C7097F05FFC024838BD00BF7C5200208C
:100A1000642D012038B50A4DD5E8AF3F13F001042D
:100A200001D0084838BD284697F030FC0028F8D09F
:100A3000044B28461C601C7197F044FC014838BDEB
:100A400068520020902B01202DE9F84381461C4D6F
:100A5000D5E8AF3F13F0010425D000234FF0010883
:100A60001C461D461F46174EC9F8343336F914305C
:100A7000002B10DD284679F01FF947EC4450002286
:100A80000121284679F0C6F8D9F8343308FA05F27E
:100A90001343C9F834330A34B4F5F07F05F1010586
:100AA000E4D1BDE8F883284697F0F0FB0028D4D0C5
:100AB000054B2846C3E901441C7097F003FCCCE7C2
:100AC0007C520020C67F0120642D01202DE9F843CF
:100AD000044610EE1870FF43DFF8C480D8E8AF3F3B
:100AE00013F001054BD0DFF8B4902C4825F09EF9A7
:100AF000D4F83433D0F888213B409A4206460BD0D4
:100B0000D8E8AF3F13F001052CD0D9F86C80B8F1CC
:100B1000000F03D1C6F88871BDE8F88302F006FD26
:100B200000234FF0010CD4F8345304F54E710CFA45
:100B300003F2154203F101030ED0D6F8884184EA8E
:100B4000070E1EEA020F07D054400A68821A424577
:100B500084BFC6F888410860302B01F10401E6D15A
:100B6000BDE8F8830E4897F091FB0028CDD00C48E3
:100B7000C9E9015589F8005097F0A4FBC5E7404644
:100B800097F084FBDFF814900028AED04046C9E906
:100B9000015589F8005097F095FBA6E7642D0120D8
:100BA0007C5200202DE9F843044625F003FA674BF8
:100BB000984210D0664B984203D078B10020BDE82F
:100BC000F8830220BDE8F88395055BD53179C90724
:100BD000F7D4012B56D90120BDE8F8835D4FD7E843
:100BE000AF3F13F001056ED0DFF86C815A4825F055
:100BF0001DF90646D7E8AF3F13F001057DD05648F2
:100C000025F018F905462046FFF760FF04F54A79FC
:100C1000304603F05BFB484604F074FD304603F0B9
:100C2000D3FA484604F07EFD2B1D321D06F1240147
:100C3000D2F800E0D2F804C09568D06810328A4239
:100C4000C3F800E0C3F804C09D60D86003F110034E
:100C5000EED112681A60D7E8AF3F13F001055AD001
:100C60003E4BB26893F83A3902F48071012B39D0C7
:100C7000032B5DD0023BDBB20029A5D1012B01D9AA
:100C80009305A8D4D4F8203404F21C44002B95D04A
:100C9000204619698A4206D89968184631B10B4630
:100CA00019698A42F8D9DB68002BF2D1844285D0D9
:100CB00003699A4282D34369102B3FF67FAF284ADB
:100CC00052F823007EE7384697F0E0FADFF8888094
:100CD00000288BD03846C8E9015588F8005097F0B5
:100CE000F1FA83E702F4007269B3002A3FF466AFB9
:100CF000307900F00100013064E7164897F0C6FA39
:100D000000283FF47CAF1348C8E9015588F800502B
:100D100097F0D8FA73E70F4897F0B8FA00289FD0F9
:100D20000C48C8E9015588F8005097F0CBFA97E7CE
:100D300000293FF443AF90057FF540AF307900F0D4
:100D4000010040003EE7C2F340203BE7A58477E77F
:100D5000E1E437F77C520020642D0120645D01201E
:100D600080C30910054B002293ED007B044980ED00
:100D7000027B80ED067B01610270704760EB0A1018
:100D80000C020C012DE9F84314460B8912890D461B
:100D900032EA030104D128782178814300F0BD8034
:100DA000774FD7E8AF3F13F0010600F0C280302044
:100DB0007CF052FF0146002247F6FF7E6FF080284C
:100DC0000927704B2E78CB610B624B628B622378C4
:100DD000C1E9012223EA06036A680B72A388DFF8DF
:100DE000B4C123EA0203CB602A892389DFF8A891E2
:100DF00023EA0203C1E9049863480B82C1F818E0B2
:100E0000C1F800C081F82C7022F06EFA2B8922897B
:100E1000934303D122782B78934364D0584FD7E87B
:100E2000AF3F13F0010668D030207CF015FF01467B
:100E300000226FF0802847F6FF7E0827514B267866
:100E4000CB610B624B628B622B78C1E9012223EAF2
:100E5000060362680B72AB88DFF840C123EA020325
:100E6000CB6022892B89DFF8309123EA0203C1E9A4
:100E700004984548C1F818E0C1F800C081F82C700A
:100E80000B8222F031FA62896B899A4203D1E268BF
:100E9000EB689A426ED03A4ED6E8AF3F13F00105A8
:100EA00058D030207CF0D8FE002301460B250B8162
:100EB0000B71CB600B82A389324A8B82E389334E5C
:100EC000CB82238A67890B83638A4F824B830E60B0
:100ED00081F82C502C48CA610A624A628A62BDE8D5
:100EE000F84322F001BA62686B689343CBD0244F79
:100EF000D7E8AF3F13F0010696D1384697F0C6F910
:100F0000002891D0204B2248C3E900669E6099F0EA
:100F1000EDFA384697F0D6F986E76868616881434C
:100F20003FF476AF164FD7E8AF3F13F001067FF4DA
:100F30003EAF384697F0AAF900283FF438AF124B7D
:100F40001348C3E900669E6099F0D0FA384697F0DE
:100F5000B9F92CE7304697F099F90028A1D00A4B4F
:100F60000B48C3E900559D6099F0C0FA304697F0F0
:100F7000A9F996E722692B699A428CD1BDE8F883DA
:100F80006452002000FEFF46702B0120A4C6091009
:100F90000104001090C609100000FF7F7CC60910F4
:100FA00090F8303470B504467BBB94F83334ABB959
:100FB000244BD3E9000150EA01030ED0224B5A6AB8
:100FC00091420AD89B6A834205D3D4F83404BDE821
:100FD000704024F0BBBF9142F7D170BD002384F86C
:100FE000333479F067FF4FF0FF356FF00042174B55
:100FF000C01841F10001854272EB01033CBF284655
:101000001146104BC3E90001D5E70023104E80F8CC
:101010003034D6E8AF3F13F0010505D094F8311411
:101020000C4824F0A1FDC0E7304697F02FF90028C6
:10103000F4D0084B3046C3E901551D7097F042F9D2
:10104000ECE700BF804D002000000B4020A107000E
:101050007C520020642D01202DE9F04F2DED028BF4
:10106000A9B08346FFF7D6FC03790693FFF7D2FCBD
:1010700003680593FFF7B2FC24F0D8FE8246FFF721
:10108000ADFC24F0D7FE0546002082F009FDC64BDA
:10109000D3E8AF4F14F0010400F0EB82C34B0B9385
:1010A000C24825F099F9069BFF2B00F0F6829FEDD0
:1010B000C08A2B1D09930BF54A7303930AF10403AD
:1010C00001930AF1240304930BF5806307930BF556
:1010D0007E730893DFF80093B64BD3E8AF3F13F06D
:1010E000010400F05281B44BDAF88C615D6EAE42BF
:1010F00065D0B04BD3E8AF3F13F0010400F071822C
:101100000024274639F91430002B02DD384678F0E8
:10111000F7FD0A34B4F5F07F07F10107F2D1A54BD2
:10112000D3E8AF3F13F0010400F04D82A24824F051
:1011300027FEA04BD3E8AF3F13F0010400F0358247
:1011400000270124B846CBF8347339F91730002B47
:1011500011DD404678F0B0FD002343EC44800121CE
:101160001A46404678F056FDDBF8343304FA08F2AC
:101170001343CBF834330A37B7F5F07F08F1010891
:10118000E3D1504602F0ECFE039804F0ABFA8B4B2F
:10119000CAF88C51D3E8AF3F13F0010400F0F4819A
:1011A00008207CF059FD042301460022CB71844BBA
:1011B00084480A714E718D710B6022F095F8019C84
:1011C0000DAE3546E36820686168A26810340FC52B
:1011D000049B10369C42F4D1186830600E9BBDF819
:1011E0003C80584602939DF83440FFF76FFC504610
:1011F00003F06CF86FEA0802BAF80C300A9233EA8E
:10120000080240F00A829AF80420E643A24300F064
:101210006781029BDD43694BD3E8AF3F13F00107C1
:1012200000F06C8130206FEA08077CF015FD9AF819
:10123000043001463340BAF808606FF0802E2E402B
:10124000BAF80C5000222F403D465F4F47F6FF7C16
:10125000C1E9047E0D824FF00705C1E901220B723E
:101260005A4B81ED078A0B6081ED088A81ED098A6E
:1012700081ED0A8A5348C1F818C0CE6081F82C501D
:1012800022F032F8BAF80C3038EA03030AD19AF89F
:10129000043034EA030305D1DAF80830029A32EA5E
:1012A000030339D0454BD3E8AF3F13F0010500F0FD
:1012B000498130207CF0D0FC0146DAF80820029DFC
:1012C0009AF804E0002325EA020292B224EA0E040E
:1012D0006FF08027BAF80CE047F6FF76CA604FF04F
:1012E0000602C1E90133DFF8E0C0394B28EA0E0EEF
:1012F000C1E904C781ED078A81ED088A81ED098A79
:1013000081ED0A8A2F488E61A1F810E081F82C2027
:101310000C720B6021F0E8FF234BD3E8AF3F13F0D2
:10132000010400F0FC80214825F01AF9069BFF2BF0
:1013300054D10598514603689B6898479BF8F83349
:10134000002B40F01081DAF80830002B40F0578174
:10135000079BD3E9002352EA030100F062811D4993
:10136000486A834207D8896A914201D2834202D0F7
:1013700001238BF8F8335846FFF712FE0D4BD3E8E4
:10138000AF3F13F001047FF4AEAE0A4896F07EFF43
:1013900000283FF4A8AE084B0648C3E901441C707E
:1013A00096F090FF9FE600BF705200209C2B01201A
:1013B00000FEFF467C520020642D01206452002074
:1013C000B8C60910702B01200000FF7F68C6091005
:1013D00054C6091000000B40C67F0120039C204624
:1013E00004F090F9504602F0EFFE204604F09AF91E
:1013F000504603F0EDFD9BF8F833002B40F0B98028
:10140000DAF80830002B40F00181079BD3E9002374
:1014100052EA030100F01981A149486A834207D8C2
:10142000896A914201D2834202D001238BF8F833BA
:10143000019C099D224629465846FFF7A3FC2146F8
:1014400023462A4620311E685D689C68D8681033A0
:101450008B42166055609460D06002F11002F2D1A8
:101460001B6813604FF05043059A9B6812689B07F6
:10147000D2F8088040F18380019B1FAE1C469C4639
:101480000FCCB64616AD0FC50FCC0FC5854F2368E0
:101490002B600FCF0FC60FCF0FC6BEE80F00ACE812
:1014A0000F00BEE80F003F68ACE80F003760514600
:1014B00027600598C047D5F800C0019D16AF0646C5
:1014C0000FCF0FC50FCF0FC5C4F800C000214FF0DC
:1014D000FF3082F05BFB3146039804F033F94AE7B2
:1014E0000299DAF80820CD438A433FF4CDAE6E4B23
:1014F000D3E8AF3F13F001077FF494AE6A4896F04B
:10150000C5FE00283FF48EAE684B6948C3E90077FA
:101510009F6098F0EBFF644896F0D4FE82E6654841
:1015200096F0B4FE00283FF4FEAE0B9B6248C3E980
:101530000044C3E902441C6198F0D8FF5D4896F06E
:10154000C1FEF0E6584896F0A1FE00283FF4B1AE87
:10155000564B5748C3E900559D6098F0C7FF524865
:1015600096F0B0FEA5E6012251460898FEF782FFEC
:1015700001E7002251460898FEF77CFF58E75146E4
:101580000598C0470646A1E7474896F07FFE002829
:101590003FF406AE454B4648C3E900449C6098F0D2
:1015A000A5FF414896F08EFEFAE5444896F06EFE9F
:1015B00000283FF4C5AD424B4048C3E901441C70CC
:1015C00096F080FEBCE53D4896F060FE00283FF4B2
:1015D000ADAD3B4B3948C3E901441C7096F072FE37
:1015E000A4E5364896F052FE00283FF489AD344B0E
:1015F0003248C3E901441C7096F064FE80E5314B2B
:101600000799D3E90023C1E90023B4E62D4B0799DC
:10161000D3E90023C1E900230AE7029BE643DD4347
:10162000F9E579F047FC4FF0FF356FF0004410F119
:10163000320241F10003954274EB03013CBF2A469C
:1016400023460799C1E9002389E679F033FC4FF07E
:10165000FF356FF0004410F1320241F10003954272
:1016600074EB03013CBF2A4623460799C1E90023D6
:10167000D2E6104896F00AFE134B0B9300283FF475
:101680000FAD0D48C3E90044C3E902441C6198F062
:101690002DFF084896F016FE02E590F0A7FE06E53D
:1016A00000000B40C8C6091064520020702B0120B6
:1016B0000104001070520020ED0300107C52002045
:1016C000642D012060EB0A109C2B0120F8B5002747
:1016D00004464E68CB680D46C0E90273103100F134
:1016E0001003012EC0E9007603C983E80300A76157
:1016F00008BF04F118070BD0B6F1005F4AD2B6005C
:1017000030467CF0A9FA39463246074699F0E6FCA5
:10171000AE682760002E3BD00C207CF09DFA074677
:10172000331D93E8030000253B4643F8045B83E840
:101730000300D4F804C0BB882246B3FBFCF10CFBC9
:10174000113352F808EBA7604EF823203668FEB13B
:101750000C207CF081FAD4E900EC0346321D92E8BB
:1017600003001A4642F8045B82E803009A883B6053
:10177000B2FBFCF10CFB11225EF8221019B13668A5
:1017800036B11F46E4E74EF822703668002EF8D1D5
:101790002046F8BDB6F1804F01D396F081FF96F058
:1017A0006FFF00BFF8B5002705464E68CB680C46B2
:1017B000C0E90273103100F11003012EC0E9007678
:1017C00003C908BF05F1180683E80300AF610BD019
:1017D000B6F1005F4ED2B60030467CF03DFA32469C
:1017E0003946064699F07AFCA4682E60002C3FD05A
:1017F0000C207CF031FA002603460746D4F808C0D6
:10180000D4F804E043F8046BC7F804E0C3F804C05C
:101810006968BB882A46B3FBF1FC01FB1C33A86056
:1018200052F8080B40F8232024680CB30C207CF0FD
:1018300013FAD5E900120346D4F808C0D4F804E03E
:1018400043F8046BC0F804E0C3F804C08388386030
:10185000B3FBF2FC02FB1C3351F823201AB12468BD
:1018600034B10746E2E741F823702468002CF8D130
:101870002846F8BDB6F1804F01D396F011FF96F0DF
:10188000FFFE00BF2DE9F04F4FF07E5C00250124E4
:1018900087B00F46194600F118030360064603930C
:1018A00000F11003C0E90255C0E90555C0F810C0A9
:1018B000446018460293924696F0A4FF73689842DB
:1018C00013D90128044600F00181B0F1005F80F0D7
:1018D000F8804FEA800840467CF0BEF9294642462F
:1018E000054699F0FBFBC6E90054574515D0F16851
:1018F0000437BB4637F8044C00294AD1B36813B902
:101900000FE01B686BB19A88A242FAD1B94609F17F
:101910003809CA4507F13C07EBD1304607B0BDE8AE
:10192000F08F7368B946B4FBF3F503FB154540200F
:101930007CF092F93BF8043C8046838000235946B2
:1019400003600830FFF7C2FE07F11C0108F1240014
:10195000FFF728FF01230093F3680299726804A837
:1019600096F0AEFF9DF81030002B44D1D6F800B0B1
:101970005BF825300BEB8502002B79D01B68C8F88B
:1019800000305BF82530C3F80080F1680131F16068
:10199000BDE7D6E90010B4FBF0FC0D4600FB1C4C83
:1019A00055F82C1021B30A6893889646A3420DD0AF
:1019B000DEF80020E2B193887146B3FBF0FE00FB35
:1019C0001E3EE64514D1A3429646F1D10B687BB189
:1019D00007F13C0B3837BA459FD03BF8044C5F46C3
:1019E000B4FBF0FC00FB1C4C55F82C100029DAD19C
:1019F0006546B9469BE7059D012D58D0B5F1005FBE
:101A00005AD24FEA850B58467CF026F95A460021F7
:101A1000834699F063FB0023B068B360A0B14FF038
:101A2000000E06F1080C024693880068B3FBF5F13E
:101A300005FB11335BF8231061B3096811605BF893
:101A400023301A600028EED1D6E90001039B8342BF
:101A500002D089007CF008F9B4FBF5F3C6E900B5C3
:101A600005FB13455BF825300BEB8502002B85D178
:101A7000B368C6F80880C8F800303BB19B8870682E
:101A8000B3FBF0F100FB11334BF8238006F10803A0
:101A900013607AE7B1681160B2604BF823C0116837
:101AA00009B14BF82E209E460028BCD1CCE700237C
:101AB000DDF80CB0B361AEE7B5F1804F04D396F01A
:101AC000EFFDB0F1804FFAD296F0DAFDB561039DDB
:101AD00009E700BF2DE9F04F06462DED028B354694
:101AE000ADF26C4DAE4C0AAB019309AB009345F8D7
:101AF000144B059500254FF0010AAA4A08ABA2F144
:101B0000100132A8FEF732FD0DABA74A01930CABD2
:101B1000009339ABA2ACA2F1100118460BABFEF753
:101B20003FFE32A92580A3A8FFF7D0FD39A9AAA8B6
:101B3000FFF738FE10AB9D4A01930FAB009340AB0B
:101B40001846A2F178010EABFEF710FD13AB984AD0
:101B5000019312AB009347ABA2F13001184611ABD1
:101B6000FEF71EFEA4F83CA040A9B2A8FFF7AEFD08
:101B700047A9B9A8FFF716FE8E4A16AB4EAF0193E0
:101B800015ABA2F120013846009314ABFEF7EEFC32
:101B90000623B7EE008A3946A4F87830C1A85BABBB
:101BA000FB6187ED0B8AC7E908A53D635B955895F6
:101BB000FFF78CFD55A9C8A8FFF7F4FD19AB7E4AC5
:101BC000019318AB00935CAB1846A2F1500117AB20
:101BD000FEF7CCFC1CAB794A01931BAB009363ABC3
:101BE000A2F1180118461AABFEF7DAFD03235CA92F
:101BF000A4F8B430D0A8FFF769FD63A9D7A8FFF710
:101C0000D1FD1FAB6E4A01931EAB00936AAB184621
:101C1000A2F140011DABFEF7A9FC22AB694A01937A
:101C200021AB009371ABA2F11001184620ABFEF777
:101C3000B7FD04236AA9A4F8F030DFA8FFF746FD3A
:101C4000E6AB184671A9FFF7ADFD5F4A25AB0DF570
:101C5000F07B019324ABA2F148015846009323ABDB
:101C6000FEF784FC28AB594A019327AB00937FAB66
:101C7000A2F13001184626ABFEF792FD0523594626
:101C8000A4F82C31EEA8FFF721FD7FA9F5A8FFF7F6
:101C900089FD4F4A2BAB0DF5067801932AABA2F1D3
:101CA00018014046009329ABFEF760FC082341462B
:101CB000A4F86831FDA893ABC8F81C3088ED0B8AF6
:101CC000C8E908A5C8F8305093959095FFF7FEFC39
:101CD0008DA90DF58260FFF765FD3E4A2EAB0DF52F
:101CE000147901932DABA2F11801484600932CAB57
:101CF000FEF73CFC09234946A4F8A4310DF58660A3
:101D0000A1ABC9F81C3089ED0B8AC9E908A5C9F84F
:101D10003050A1959E95FFF7D9FC9BA90DF24C4040
:101D2000FFF740FD4FF000038DF80C3031AB02930C
:101D300030AB01932FAB009321462B4605980DF550
:101D40008D62FFF79FFD0DF22C4A0596DAF82860A8
:101D500036B1304636680C217BF086FF002EF8D174
:101D6000DAF8242000219200DAF8200099F0B6F980
:101D7000DAF820000AF138029042CAE90A55DAF886
:101D8000241002D089007BF06FFFDAF80C601EB3DC
:101D9000304636680C217BF067FF002EF8D11BE03F
:101DA00000C20A104CC609103CC609102CC6091006
:101DB000B4C5091084C5091064C5091014C50910FB
:101DC000FCC40910BCC40910ACC4091064C40910D7
:101DD00034C409101CC40910DAF80820002192004C
:101DE000DAF8040099F07AF9DAF804000AF11C0232
:101DF0009042CAE90355DAF8081008D089007BF050
:101E000033FF5445AAF13C0205D092469EE7544563
:101E1000AAF13C02F9D1D9F82450059E35B12846E3
:101E20002D680C217BF020FF002DF8D1D9F820205F
:101E30000021D9F81C00920099F050F9D9E9070166
:101E40000023C9E90933A1AB984202D089007BF095
:101E50000BFFD9F8085035B128462D680C217BF0CE
:101E600003FF002DF8D1D9F804200021D9F8000093
:101E7000920099F033F9D9E900010023C9E902334E
:101E80009AAB984202D089007BF0EEFED8F824503D
:101E900035B128462D680C217BF0E6FE002DF8D1E7
:101EA000D8F820200021D8F81C00920099F016F9EB
:101EB000D8E907010023C8E9093393AB984202D05F
:101EC00089007BF0D1FED8F8085035B128462D683E
:101ED0000C217BF0C9FE002DF8D1D8F80420002198
:101EE000D8F80000920099F0F9F8D8E90001002331
:101EF000C8E902338CAB984202D089007BF0B4FE73
:101F0000DBF8245035B128462D680C217BF0ACFE5F
:101F1000002DF8D1DBF820200021DBF81C00920016
:101F200099F0DCF80023DBF81C00CBE9093385AB22
:101F30009842DBF8201002D089007BF095FEDBF898
:101F4000085035B128462D680C217BF08DFE002D00
:101F5000F8D1DBF804200021DBF80000920099F0B2
:101F6000BDF8DBE900010023CBE902337EAB9842E8
:101F700002D089007BF078FE739D35B128462D682C
:101F80000C217BF071FE002DF8D1729A002171981E
:101F9000920099F0A3F800237198CDE9733377ABE1
:101FA0009842729902D089007BF05EFE6C9D35B13B
:101FB00028462D680C217BF057FE002DF8D16B9A36
:101FC00000216A98920099F089F8DDE96A010023FE
:101FD000CDE96C3370AB984202D089007BF044FEAF
:101FE000659D35B128462D680C217BF03DFE002D06
:101FF000F8D1649A00216398920099F06FF8002359
:102000006398CDE9653369AB9842649902D0890041
:102010007BF02AFE5E9D35B128462D680C217BF0B1
:1020200023FE002DF8D15D9A00215C98920099F072
:1020300055F8DDE95C010023CDE95E3362AB9842DF
:1020400002D089007BF010FE7D6A35B128462D68EC
:102050000C217BF009FE002DF8D13A6A0021F869C5
:10206000920099F03BF8D7E907010023C7E909334B
:102070005BAB984202D089007BF0F6FDBD6835B1BC
:1020800028462D680C217BF0EFFD002DF8D17A68F1
:1020900000213868920099F021F8D7E90001002367
:1020A000C7E9023354AB984202D089007BF0DCFDD3
:1020B000499D35B128462D680C217BF0D5FD002DBA
:1020C000F8D1489A00214798920099F007F8002328
:1020D0004798CDE949334DAB9842489902D08900E1
:1020E0007BF0C2FD429D35B128462D680C217BF066
:1020F000BBFD002DF8D1419A00214098920098F044
:10210000EDFFDDE940010023CDE9423346AB9842C3
:1021100002D089007BF0A8FD3B9D35B128462D6893
:102120000C217BF0A1FD002DF8D13A9A00213998BD
:10213000920098F0D3FF00233998CDE93B333FABB1
:1021400098423A9902D089007BF08EFD349D35B1DA
:1021500028462D680C217BF087FD002DF8D1339A9D
:1021600000213298920098F0B9FFDDE93201002396
:10217000CDE9343338AB984202D089007BF074FD4E
:1021800001222280032222840422002322860221AB
:102190000522C6E90C33C6E90E33C6E91033C4E99B
:1021A0000233C4E90633C4E90A3386F84830C6F876
:1021B0004A30C6F84E30C6F85230C6F85630C6F827
:1021C0005A30C6F85E30C6F86230C6F86630C6F8D7
:1021D0006A30C6F86E30C6F8723086F876306360C2
:1021E0006361636221826363A4F840200622A4F83D
:1021F00050200722A4F860200822A4F870200922A9
:10220000A4F880200A22A4F890200B22A4F8A02091
:102210000C221F46C4E90E33C4E91233C4E9163355
:10222000C4E91A33C4E91E33C4E92233C4E92633AE
:10223000C4E92A336364636563666367C4F8843002
:10224000C4F89430C4F8A430C4F8B430A4F8B02072
:10225000C4E92E33C4E93233C4E93633C4E93A332E
:10226000C4E93E33C4F8C430C4F8D430C4F8E43010
:10227000C4F8F43086F87C30C6F88030C6F88C306C
:102280000D23A4F8C0300E23A4F8D0300F23A4F8F7
:10229000E0301023B94606F17C0AC6E921AA0DF503
:1022A0002678A4F8F03038F810BC002F5AD0D6F8B1
:1022B00088502B8A5B4555D255456ED02B8A5B459D
:1022C00094BF00230123059320207BF0C5FC58E92F
:1022D0000312521A0746C0E90599A0F810B0C0F8D9
:1022E0001C905DD0384B9A425ED8104607910692FA
:1022F0007BF0B2FC069AC7E9050000EB020B042A4A
:102300000799C7F81CB05BDD99F054FA3946C7F855
:1023100018B02A465346059896F0FCF8D6F88C700B
:102320000137C6F88C7008F11008E6AB4345BAD106
:10233000DF98DEAD58B1E968091A7BF095FCAC4234
:10234000A5F1100307D01D4668680028F3D1AC4200
:10235000A5F11003F7D130460DF26C4DBDEC028BA8
:10236000BDE8F08FD6F8805015B32A8A934505D37F
:10237000EB6873B11D462A8A9345F9D2AB68002BEE
:10238000F8D1D6F88430AB4296D0284696F0A8F81B
:10239000028A5A45C7D2554590D10123059393E748
:1023A00093464261C261B1E7002A07DA96F078F9F4
:1023B000D6F8843055465345E7D1EEE796F060F9FC
:1023C0000A680260A2E700BFFCFFFF7F2DE9F0472B
:1023D000074615461C46894618207BF03DFC07F150
:1023E000040A2D682368CA450646C0E9045338D05C
:1023F000D9F810304C469D4222D2D7F80C90A14516
:1024000057D0204696F06CF803699D424FD8D7F814
:102410000880B8F1000F00F08F80D8F810309D428E
:1024200008D2D8F80830002B77D09846D8F810306A
:102430009D42F6D3D8F80C20002A67D09046ECE7EE
:1024400029D93B694B4545D0484696F01DF80369AC
:102450009D424CD2D9F80C30002B3DD004460120CF
:1024600028E07B6993BBD7F80880B8F1000F5FD0F4
:10247000D8F81020954215D2D8F80830ABB9FB68CF
:10248000434553D0404696F02BF8444680460269B7
:1024900095421FD84446304618217BF0E5FB204684
:1024A000BDE8F087D8F80C30FBB19846E0E7C36888
:1024B0008BB30120224634465346314696F02AF823
:1024C0007B69204601337B61BDE8F0873C69236965
:1024D0009D42C8D9A245ECD0206985422CBF00207E
:1024E0000120E7E7D8F80C3073B94446D0E7D7F8B5
:1024F0000880B8F1000F23D0D8F810209542F1D20F
:10250000D8F80830002BBAD09846F5E744469D42EB
:10251000E0D84446BFE70446DCE7C1450AD0404660
:1025200095F0DEFF444603698046F0E74446D1E774
:10253000C846A4E74C46CDE7CA4506D0D046EEE7EC
:10254000FB689A4501D0D0469CE754460120B1E78C
:102550002DE9F04F0546DFF8648385B0D8E8AF3F3A
:1025600013F0010400F0EA83DFF81C93C64823F05F
:10257000E7FAC64CD4E8AF3FDF0740F10C84C4480B
:1025800023F03EF9D4E8AF3FDE0740F1E783C048CF
:1025900023F0B0F9D4E8AF3FD80740F14584BC48F8
:1025A00023F062F94FF44A707BF056FB074600F0C7
:1025B000D1FF4FF44A707BF04FFB064600F0CAFF94
:1025C000D8E8AF3F13F0010400F01F843946AE484D
:1025D00023F02AFCD8E8AF3F13F0010400F0068492
:1025E0003146A94823F024FCD8E8AF3F13F001049A
:1025F00000F0EE83A44823F0C3FB4FF48073642201
:10260000384687F8BF20A7F8BD3001F021F8D8E898
:10261000AF3F13F0010400F08383D9F864302846FB
:10262000C7F88C31FEF710FA212077F045FB212006
:102630004FF0000343EC44000022012177F0EAFA56
:10264000D8E8AF3F13F0010400F05C830122D5F815
:10265000203405F21C440092002B00F0DF84204659
:1026600019460A69002A40F09E82C9680029F8D1FB
:1026700001468C4203D00A69012A40F29B8205F58B
:10268000836A844B6A465046FFF7A0FE02230093FC
:10269000D5F820346E46002B00F0E6831A4620461B
:1026A0001969012900F2AD82DB68002BF8D10346DD
:1026B0009C4200F0D6831969022940F21B836E46C2
:1026C00005F5836A19463246734B5046FFF77EFE86
:1026D0000423D5F820240093002A00F0A284134696
:1026E00020461169032900F29382D268002AF8D1AA
:1026F0000246944200F0DA821169042900F2D6827F
:10270000082200921A4620461969072900F26B82B6
:10271000DB68002BF8D10346A34200F0A3821969BD
:10272000082900F29F821023114600932046136966
:102730000F2B00F25182D268002AF8D10246A24241
:1027400000F0A2821369102B00F29E8240230093B6
:102750000B4620460A693F2A00F23782C9680029E1
:10276000F8D10146A14200F074840A69402A40F27F
:10277000C5826E4605F5836A484B32465046FFF7E0
:1027800025FE20230093D5F82034002B00F0408450
:10279000194620461A691F2A00F21082DB68002BB6
:1027A000F8D10346A34200F093821A69202A00F26E
:1027B0008F828023009322460B697F2B00F21A82BE
:1027C000C9680029F8D11146A14202D00B69802BBB
:1027D00007D96E4605F5836A32465046304BFFF7FF
:1027E000F5FD89F0E1FC082000247BF035FA2D4B43
:1027F00005F54A76C0E900340146304602F0DAFEBB
:1028000008207BF029FA284B0146C0E90034304605
:1028100002F0D0FEB0207BF01FFA8246B0222146A3
:1028200098F05CFC214B5146CAF80030304602F06B
:102830005BFEE8207BF010FA8246E822214698F001
:102840004DFC1B4B5146CAF80030304602F04CFE9E
:102850000C207BF001FA174B0146C0E9003484607C
:10286000304602F041FE20207BF0F6F9824620221D
:10287000214698F033FC104B5146CAF800303046E0
:1028800002F032FE0C201BE0642D01207452002067
:10289000B02B0120D82D0120E02D0120002E012099
:1028A000102E01201CB50A1030C40A10E0B10A1025
:1028B000A0B30A10C0B20A10ACB40A107C520020B7
:1028C0007BF0CAF9D64B0146C0E90034846030463B
:1028D00002F00AFE28207BF0BFF98246282221461A
:1028E00098F0FCFBCF4B5146CAF80030304602F05E
:1028F000FBFD34207BF0B0F982463422214698F06B
:10290000EDFBC94B5146CAF83030C84B3046CAF8C7
:10291000003002F0E9FD90207BF09EF98246902283
:10292000214698F0DBFB5046FFF7D4F8514630467D
:1029300002F0DAFD28207BF08FF98246282221461A
:1029400098F0CCFBBA4B5146CAF80030304602F042
:10295000CBFD1C207BF080F9B64B0146C0E900346A
:10296000C0E90244C0E904448461304602F0BCFD81
:1029700054207BF071F982465422214698F0AEFB38
:10298000AD4B5146CAF80030304602F0ADFD802014
:102990007BF062F982462146802298F09FFB5046E8
:1029A0004FF0010BA54B2146202240F8083B98F040
:1029B00095FBDFF8A8E20AF1380C8AF814B08AF81F
:1029C00024B0BEE80F00ACE80F00BEE80F00ACE892
:1029D0000F00BEE80F00ACE80F009EE80F008CE887
:1029E0000F005146304602F07FFD38207BF034F96D
:1029F00082463822214698F071FB914B5146CAF825
:102A00000030534603F80C4FCAE90533304602F054
:102A10006BFD20207BF020F982462022214698F091
:102A20005DFB884B5146CAF80030304602F05CFD31
:102A300041F264007BF010F98246214641F26402C3
:102A400098F04CFB5046804B214640F8083B4FF431
:102A5000006298F043FB21464FF400620AF60E0034
:102A600098F03CFB4FF4E13C4FF0FF322C202D213D
:102A7000DFF8ECE10AF58053C3E905ECC3E909018D
:102A8000C3E90722C3E90B229C645146304602F099
:102A90002BFD40F614007BF0DFF88246214640F61D
:102AA000140298F01BFB5046684B40F8083B8FF02F
:102AB000F9FA0AF5D4708FF0F5FA21464FF4C8728E
:102AC0000AF5527098F00AFB21464FF4C8720AF5D5
:102AD0009B6098F003FB4FF47F434FF4C872AAF851
:102AE000683621468AF86A46CAF86C46CAF87046C3
:102AF000CAF874468AF878460AF27C6098F0EEFAD2
:102B00005146CAF80C488AF810B8304602F0ECFC7E
:102B100028207BF0A1F882462822214698F0DEFA90
:102B20004B4B5146CAF80030304602F0DDFC7820AD
:102B30007BF092F882467822214698F0CFFA454BF6
:102B40005146CAF80030304602F0CEFC58207BF0E7
:102B500083F821460446582298F0C0FA3E4B21469D
:102B60002360304602F0C0FCD7F8903128465C78EC
:102B7000FEF718F80138122800F27582DFE810F02D
:102B8000C7016F02ED01EB01E901E701E501E30196
:102B9000E101DF01DD01DB01D901D701D501D3015D
:102BA000D101C50176018A68002A3FF462AD08466A
:102BB000114656E5022200921A4670E59A68002AEC
:102BC0003FF4F0AD18461346E4E58A68002A3FF466
:102BD000C9AD08461146BDE59368002B3FF4AFAD83
:102BE00010461A46A3E5996800293FF495AD1846AA
:102BF0000B4689E58B68002B3FF4E6AD0A46194683
:102C0000DAE5996800293FF453AD18460B4647E5CD
:102C1000916800293FF46DAD10460A4661E500BF9A
:102C200030B30A1018B60A1000000442C0C30A10DC
:102C3000E0C20A1078C10A1050C30A10A4BF0A10DB
:102C4000A4B60A1038C50A1080BC0A10B0BB0A101E
:102C500028C00A1008C10A1070C20A10F0C6091074
:102C6000000007406E4605F5836A19463246BC4BA4
:102C70005046FFF7ABFB1023D5F820240093002A21
:102C800000F0CA81114651E56E4605F5836A11468A
:102C9000B44B32465046FFF799FB4023D5F8201439
:102CA0000093002900F0D8810B4652E56E4605F5E9
:102CB000836A1146AC4B32465046FFF787FB082328
:102CC0000093D5F82034002B00F0A4811A461AE5B1
:102CD0006E4605F5836A19463246A44B5046FFF707
:102CE00075FB8023D5F82014009300297FF463AD91
:102CF000214671E5042300931346F1E4202219468E
:102D0000009246E59A4895F0C1FA00283FF49EAC3F
:102D10009748C9E9014489F8004095F0D3FA95E451
:102D2000934895F0B3FA00283FF477AC9048C9E98E
:102D3000014489F8004095F0C5FA6EE4404695F0EC
:102D4000A5FADFF8549200283FF410AC4046C9E9D8
:102D5000014489F8004095F0B5FA07E4854895F0FC
:102D600095FA00283FF413AC83488FF0A7FD834801
:102D70008FF0A4FD82488FF013FF82488FF010FF80
:102D8000814890F055F8814897F0B0FB794895F06C
:102D900099FAFFF7FCBB204695F078FA00283FF43B
:102DA000EEAB75488FF08AFD74488FF087FD74484C
:102DB0008FF0F6FE73488FF0F3FE734890F038F80A
:102DC000724897F093FB204695F07CFAFFF7D7BB4B
:102DD000674895F05BFA00283FF40CAC6448C9E9F9
:102DE000014489F8004095F06DFA03E4604895F0DD
:102DF0004DFA00283FF4F4AB5D48C9E9014489F875
:102E0000004095F05FFAFFF7EBBB594895F03EFAAA
:102E100000283FF4DBAB5648C9E9014489F800407B
:102E200095F050FAFFF7D2BB524895F02FFA0028E0
:102E30003FF4B5AB50488FF041FD50488FF03EFD58
:102E40004F488FF0ADFE4F488FF0AAFE4E488FF0EE
:102E5000EFFF4E4897F04AFB464895F033FAFFF7EC
:102E60009EBB6E4605F5836A23462BE40F24484B30
:102E7000D3E8AF3FDB0740F1BF80214645481FF054
:102E800005FED7F890315A78A2420AD05C70D8E893
:102E9000AF3F13F0010400F0CE8001213E4822F044
:102EA00063FE3E4FD7E8AF3F13F0010400F092807D
:102EB00000233B493B4A3C48CDE902216A460C21AC
:102EC0000193009520F0B4FA029B6E461BB10322D9
:102ED000694668469847D7E8AF3F13F0010469D0C8
:102EE0000023324A324803920290324601212E4892
:102EF0000193009520F09CFA029B1BB103223146FE
:102F00003046984705B0BDE8F08F0C24AFE7204B62
:102F1000D3E8AF3FDA076ED5FF211E481FF0B6FD9C
:102F2000BFE70B24A3E70A24A1E709249FE70824AD
:102F30009DE706249BE7072499E7052497E71024DB
:102F400095E70D2493E7042491E702248FE70E24EC
:102F50008DE703248BE7002489E7012487E700BF7E
:102F6000F02D0120F82D0120E82D0120082E012050
:102F70007C52002074520020B02B0120D02B012065
:102F8000F02B01202C2C0120682C01206103001063
:102F900068520020902B0120642D012064520020F3
:102FA000250300101D050010702B01204D0300109B
:102FB000450500102F4895F069F9002890D02E4B58
:102FC0002E48C3E900449C6097F090FA294895F098
:102FD00079F985E7384695F059F900283FF468AF4C
:102FE000254B2648C3E900449C6097F07FFA384699
:102FF00095F068F95CE7FF24214895F047F990B90E
:10300000214620481FF042FDFF2C3FF44AAF38E72D
:10301000234660E6234628E6224638E62146FFF7A7
:103020002EBB224645E60022164B15481A601A713F
:1030300095F048F9E4E7144895F028F900283FF4A2
:103040002CAF1148C9E9014489F8004095F03AF9DC
:1030500023E76E4605F5836A2146FFF78DBB002105
:10306000084678F0F7F9064BD3E8AF3FD907C7D445
:10307000C2E700BF64520020702B01200104001041
:1030800068520020902B01207C5200201D4AF8B588
:103090001368591C11603BB94FF0FF311A4AC2E95D
:1030A0000133C2E903331160184A1368591C1160D7
:1030B00033B1174B174AD2E90001C3E90001F8BD4B
:1030C000154C4020C4E90033A3607AF0C5FD864664
:1030D000124D00F1400605F140072060A660AC46A5
:1030E0000EF1100EBCE80F00BC4505F110054EF8BE
:1030F000100C4EF80C1C4EF8082C4EF8043CEED187
:103100006660D6E75C5200204452002058520020EE
:10311000804D002060EB0A100C910120C4C30910FF
:10312000034B186818B19968091A7AF09DBD704769
:103130009C2B01200022C0E90022C0E90222027477
:10314000704700BF2DE9F0410746984DD5E8AF3FE5
:1031500013F0010400F0F980954E3068386098B1A2
:1031600003685B689847386803685B6B9847044658
:1031700050B1904ED6E8AF3F13F0010500F0028148
:1031800021468D4823F09EF98C207AF065FD8C2233
:103190000021054697F0A2FF01230024874A2B74E3
:1031A00005F120033E1DAB6105F17C032A60294631
:1031B0006B6785F8204085F87C40304602F094F932
:1031C00010207AF049FD01467D4BC1E901440B60B6
:1031D000CC60304602F088F94FF4E4607AF03CFDB0
:1031E00021464FF4E462054697F078FF0A22754BBA
:1031F000AA602B6005F130008EF054FFC5E97444DD
:10320000C5E9764405F5F0706FF01AFB05F24C53F2
:103210002946C5F85435C5F8583585F84C45C5F8E4
:103220005045C5F85C45304602F05EF920207AF042
:1032300013FD0546644BDFF8A881C0E90344C0E9EB
:1032400005440360D8E8AF3F13F0010400F08A8022
:10325000DFF8908198F8253A29462B72304602F023
:1032600043F910207AF0F8FC00240146574BC1E9DD
:103270000144CC600B60304602F036F91C207AF035
:10328000EBFC0146524BC1E901440B60C1E9034428
:10329000C1E90544304602F027F930207AF0DCFC21
:1032A00005463022214697F019FF4A4B29462B60EC
:1032B000304602F019F9D0207AF0CEFC2146D02217
:1032C000044697F00BFF4FF6FF7301252381A3837C
:1032D0002386A4F84430A4F85830A4F86C30A4F83D
:1032E0008030A4F89430A4F8A830A4F8BC304FF68D
:1032F000F673394A304621462260A572A57784F8D4
:10330000325084F8465084F85A5084F86E5084F84D
:10331000825084F8965084F8AA5084F8BE50A38155
:103320002384A386A4F84830A4F85C30A4F8703055
:10333000A4F88430A4F89830A4F8AC30A4F8C030D5
:1033400002F0D2F83D74BDE8F081284694F09EFF6B
:10335000174E00283FF401AF28463460347194F0D2
:10336000B1FFFAE6404694F091FF00283FF470AFB9
:103370004046DFF87080C8E9014488F8004094F0C6
:10338000A1FF67E7304694F081FF00283FF4F8AED4
:10339000094B1248C3E90055C3E902551D6197F076
:1033A000A5F8304694F08EFFEAE600BF6852002090
:1033B000902B0120705200209C2B0120FCB80A1099
:1033C00010BC0A1020BD0A10BCBE0A1050B20A1070
:1033D0003CB40A1098C00A1034BF0A102131001002
:1033E0007C520020642D0120054608B5041D2046AE
:1033F00002F088F9204602F095F928680028F6D0F6
:103400000368DB689847F2E71A4AF8B51368591C55
:1034100011603BB94FF0FF31174AC2E90133C2E9ED
:1034200003331160154A1368591C116003B1F8BDCC
:10343000134C4020C4E90033A3607AF00DFC8646AB
:10344000104D00F1400605F140072060A660AC4633
:103450000EF1100EBCE80F00BC4505F110054EF84A
:10346000100C4EF80C1C4EF8082C4EF8043CEED113
:103470006660F8BD5C520020445200205852002083
:103480000C91012030C70910704700BF007A7047C7
:10349000704700BFC079704710B504460C217AF020
:1034A000E3FB204610BD00BF10B5044608217AF0AA
:1034B000DBFB204610BD00BF2DE9F041DFF868803E
:1034C000D8E90067BE4218D0D6E90145AC4209D020
:1034D000A368DBB121462046032210349847A54259
:1034E000F6D17568BDB1F1682846491B10367AF0EF
:1034F000BBFBB742E8D1D8F8007097B1D8F80810F4
:103500003846C91BBDE8F0417AF0AEBB1034A54285
:10351000DED17568E6E71036B742D5D1D8F800702D
:10352000EBE7BDE8F08100BF702B012008B577F014
:10353000C1FC29B14FF47A72002398F00DFE08BD4A
:10354000024AA2FB0020800908BD00BFD34D6210D3
:1035500077F0B0BCF8B547F6FF7100236FF0802517
:103560000446344A344F354EC0E90033C0E90237CF
:10357000C0E90451C0E90A33C0E90D51C0E9133371
:10358000C0E91533C0E91733C0E919338261C2615C
:1035900002624262C2630264426482640763C36679
:1035A000036743678367C0E92033C0E92233C0E97A
:1035B0002433C0E92633C0E92833C0E92A33C0E9FF
:1035C0002C33C0E92E33C367C0F88C31D6E8AF3F47
:1035D00013F0010514D01A4FC4F89071D6E8AF3F2C
:1035E00013F0010519D000231649174A2046D2E9E5
:1035F0000067C4F89811C4E9C86784F81C33F8BDA3
:10360000304694F043FE0028E5D0104B3046C3E925
:1036100001551D7094F056FEDDE7084894F036FE23
:103620000028E0D0054847E9135507F8505C94F0AE
:1036300049FED8E700FEFF460000FF7F7C520020D5
:10364000B42D0120902E012060EB0A10642D012082
:103650002DE9F04F8346044D99B0D5E8AF2F12F015
:10366000010400F06C8401E07C52002008207AF014
:10367000F3FA002502464FF00109CBF8C020C2E959
:10368000005908207AF0E8FA4FF0020802460820B4
:10369000C2E90058CBF8C4207AF0DEFA04270246CB
:1036A0000820C2E90057CBF8C8207AF0D5FA0824E0
:1036B00002462046C2E90054CBF8CC207AF0CCFA7E
:1036C00002462046C2E90059CBF8D0207AF0C4FA6D
:1036D00002462046C2E90058CBF8D4207AF0BCFA62
:1036E00002462046C2E90057CBF8D8207AF0B4FA57
:1036F00002462046C2E90054CBF8DC207AF0ACFA4E
:103700001022CBF8E0004260056020467AF0A4FA6F
:103710002022CBF8E4004260056020467AF09CFA53
:10372000402602462046C2E90056CBF8E8207AF04F
:1037300093FA8022CBF8EC004260056020467AF0D4
:103740008BFA4FF48072CBF8F0004260056020469F
:103750007AF082FA4FF40072CBF8F4004260056010
:1037600020467AF079FA4FF48062CBF8F800426094
:10377000056020467AF070FA4FF40062CBF8FC0046
:103780004260056020467AF067FA4FF48052CBF829
:1037900000014260056020467AF05EFA4FF4005264
:1037A000CBF804014260056020467AF055FA4FF4E8
:1037B0008042CBF808014260056020467AF04CFA5E
:1037C0004FF4004A02462046C2E9005ACBF80C21C9
:1037D0007AF042FA4FF48012CBF810014260056093
:1037E00020467AF039FA4FF40012CBF81401426007
:1037F000056020467AF030FA4FF48002CBF81801C9
:103800004260056020467AF027FA4FF40002CBF8B8
:103810001C014260056020467AF01EFA4FF080726B
:10382000CBF820014260056020467AF015FA4FF08F
:103830000072CBF824014260056020467AF00CFA51
:103840004FF08062CBF828014260056020467AF094
:1038500003FA4FF00062CBF82C014260056020466D
:103860007AF0FAF94FF08052CBF8300142600560EF
:1038700020467AF0F1F94FF00052CBF83401426063
:10388000056020467AF0E8F94FF08042CBF8380125
:103890004260056020467AF0DFF94FF00042CBF835
:1038A0003C014260056020467AF0D6F9C0F804A0D9
:1038B000CBF84001056020467AF0CEF91822CBF80B
:1038C00044014260056020467AF0C6F91922CBF81F
:1038D00048014260056020467AF0BEF91A22CBF812
:1038E0004C014260056020467AF0B6F9C0F80490B9
:1038F000CBF85001056020467AF0AEF9C0F804809C
:10390000CBF85401056020467AF0A6F94760CBF861
:103910005801056020467AF09FF902462046C2E928
:103920000054CBF85C217AF097F93B22CBF8600188
:103930004260056020467AF08FF93C22CBF86401A2
:103940004260056020467AF087F93D22CBF8680195
:103950004260056020467AF07FF93E22CBF86C0188
:103960004260056020467AF077F93F22CBF870017B
:103970004260056020467AF06FF902462046C2E9AF
:103980000056CBF874217AF067F9412102462046AF
:10399000C2E90051CBF878217AF05EF94221024663
:1039A0002046C2E90051CBF87C217AF055F9472135
:1039B00002462046C2E90051CBF880217AF04CF94A
:1039C00046222946C0E90052AA4CCBF88401B4F93A
:1039D0000030013B462B4FD8DFE813F0AE02AB02BC
:1039E000A802A502A2029F029C02990296029302DB
:1039F00090028D028A028702840281027E027B028B
:103A000078024E004E004E004E00750272026F02A8
:103A10004E004E004E004E004E004E004E004E0036
:103A20004E004E004E004E004E0087018401810181
:103A30007E017B017801750172016F016C016901E2
:103A40006601630160015D015A0157015401510192
:103A50004E0149014601430140013D013A01370150
:103A60004E004E004E002B014700DBF88051012232
:103A70002B688A4013432B600131302904F1140470
:103A8000A5D1DBF898210BF5F274131D01941C46A7
:103A90000BF5FE710BF505700291039002F1900198
:103AA0000BF50B700491059002F1AC010BF5117050
:103AB0000691079002F1C8010BF517700891099063
:103AC00002F1E4010BF51D700A910B9002F5807173
:103AD0000BF523700C910D9002F58E710BF529708A
:103AE0000E910F9002F59C710BF52F7010911190B3
:103AF00002F5AA710BF535701291139002F5B871A9
:103B00000BF53B70149115900BF541710BF5CE7AC6
:103B100002F5C6701791169002F1200902F13C07D8
:103B200002F1580502F1740E02F5D47C0FCCAAE81C
:103B30000F0094E803000BF5DA788AE80300B9E88F
:103B40000F00A8E80F0099E803000BF5E67688E877
:103B500003000FCF0FC697E8030086E803000FCDE0
:103B6000019C0FC495E80300C4E90001BEE80F0002
:103B7000029C049D0FC49EE8030084E803000FCD5F
:103B8000039C0FC495E80300069DC4E900010FCD16
:103B9000059C0FC495E80300089DC4E900010FCD02
:103BA000079C0FC495E80300C4E900010A9D099C25
:103BB0000FCD0FC495E803000C9DC4E900010FCDA3
:103BC0000B9C0FC495E803000E9DC4E900010FCDC6
:103BD0000D9C0FC495E80300109DC4E900010FCDB2
:103BE0000F9C0FC495E80300129DC4E900010FCD9E
:103BF000119C0FC495E80300149DC4E900010FCD8A
:103C0000139C0FC495E80300169DC4E900010FCD75
:103C1000159C0FC495E80300C4E90001BCE80F003F
:103C2000179C0FC49CE8030084E8030019B0BDE8AA
:103C3000F08F012203688A40013113433029036069
:103C400004F114047FF4C3AE1BE7DBF87C510EE7EC
:103C5000DBF878510BE7DBF8745108E7DBF87051BB
:103C600005E7DBF86C5102E7DBF86851FFE6DBF8AB
:103C70006451FCE6C67F0120DBF86051F7E6DBF813
:103C80005C51F4E6DBF85851F1E6DBF85451EEE60E
:103C9000DBF85051EBE6DBF83C51E8E6DBF8385155
:103CA000E5E6DBF83451E2E6DBF83051DFE6DBF83D
:103CB0002C51DCE6DBF82851D9E6DBF82451D6E6B6
:103CC000DBF82051D3E6DBF81C51D0E6DBF81851C5
:103CD000CDE6DBF81451CAE6DBF81051C7E6DBF895
:103CE0000C51C4E6DBF80851C1E6DBF8C050D4F84B
:103CF00006206E68D4F80E30324204D001272E68B8
:103D00008F403E432E60DBF8C4506E68324204D0D0
:103D100001272E688F403E432E60DBF8C8506E6846
:103D2000324204D001272E688F403E432E60DBF8DC
:103D3000CC506E68324204D001272E688F403E433B
:103D40002E60DBF8D0506E68334204D001272E6815
:103D50008F403E432E60DBF8D4506E68334204D06F
:103D600001272E688F403E432E60DBF8D8506E68E6
:103D7000334204D001272E688F403E432E60DBF88B
:103D8000DC506E68334204D001272E688F403E43DA
:103D90002E60DBF8E0506E68334204D001272E68B5
:103DA0008F403E432E60DBF8E4506E68334204D00F
:103DB00001272E688F403E432E60DBF8E8506E6886
:103DC000334204D001272E688F403E432E60DBF83B
:103DD000EC506E68334204D001272E688F403E437A
:103DE0002E60DBF8F0506E68334204D001272E6855
:103DF0008F403E432E60DBF8F4506E68334204D0AF
:103E000001272E688F403E432E60DBF8F8506E6825
:103E1000334204D001272E688F403E432E60DBF8EA
:103E2000FC506E68334204D001272E688F403E4319
:103E30002E60DBF800516E68334204D001272E68F3
:103E40008F403E432E60DBF804516E68334204D04D
:103E500001262B688E4033432B60DBF850315D68C0
:103E60002A4204D001261D688E4035431D60DBF8D0
:103E700054315D682A4204D001261D688E403543C6
:103E80001D60DBF858315D682A4204D001261D68A8
:103E90008E4035431D60DBF85C315D682A423FF49B
:103EA000EBAD01251A688D4001312A4330291A6093
:103EB00004F114047FF48BADE3E5DBF84C51D6E557
:103EC000DBF84851D3E5DBF84451D0E5DBF840514D
:103ED000CDE5DBF8FC50CAE5DBF8F850C7E5DBF8C8
:103EE0000451C4E5DBF80051C1E5DBF8F450BEE550
:103EF000DBF8F050BBE5DBF8EC50B8E5DBF8E85058
:103F0000B5E5DBF8E450B2E5DBF8E050AFE5DBF80F
:103F1000DC50ACE5DBF8D850A9E5DBF8D450A6E5D9
:103F2000DBF8D050A3E5DBF8CC50A0E5DBF8C850B7
:103F30009DE5DBF8C4509AE5DBF8C05097E52846CC
:103F400094F0A4F900283FF491AB044A2846C2E952
:103F50000144147094F0B6F9FFF788BB642D01207A
:103F600010B50446D0F8C00010B1082179F07CFEED
:103F7000D4F8C40010B1082179F076FED4F8C80056
:103F800010B1082179F070FED4F8CC0010B10821EE
:103F900079F06AFED4F8D00010B1082179F064FEFF
:103FA000D4F8D40010B1082179F05EFED4F8D8001E
:103FB00010B1082179F058FED4F8DC0010B10821C6
:103FC00079F052FED4F8E00010B1082179F04CFEEF
:103FD000D4F8E40010B1082179F046FED4F8E800E6
:103FE00010B1082179F040FED4F8EC0010B108219E
:103FF00079F03AFED4F8F00010B1082179F034FEDF
:10400000D4F8F40010B1082179F02EFED4F8F800AD
:1040100010B1082179F028FED4F8FC0010B1082175
:1040200079F022FED4F8000110B1082179F01CFECD
:10403000D4F8040110B1082179F016FED4F8080173
:1040400010B1082179F010FED4F80C0110B108214C
:1040500079F00AFED4F8100110B1082179F004FEBD
:10406000D4F8140110B1082179F0FEFDD4F818013C
:1040700010B1082179F0F8FDD4F81C0110B1082125
:1040800079F0F2FDD4F8200110B1082179F0ECFDAF
:10409000D4F8240110B1082179F0E6FDD4F8280104
:1040A00010B1082179F0E0FDD4F82C0110B10821FD
:1040B00079F0DAFDD4F8300110B1082179F0D4FD9F
:1040C000D4F8340110B1082179F0CEFDD4F83801CC
:1040D00010B1082179F0C8FDD4F83C0110B10821D5
:1040E00079F0C2FDD4F8400110B1082179F0BCFD8F
:1040F000D4F8440110B1082179F0B6FDD4F8480194
:1041000010B1082179F0B0FDD4F84C0110B10821AC
:1041100079F0AAFDD4F8500110B1082179F0A4FD7E
:10412000D4F8540110B1082179F09EFDD4F858015B
:1041300010B1082179F098FDD4F85C0110B1082184
:1041400079F092FDD4F8600110B1082179F08CFD6E
:10415000D4F8640110B1082179F086FDD4F8680123
:1041600010B1082179F080FDD4F86C0110B108215C
:1041700079F07AFDD4F8700110B1082179F074FD5E
:10418000D4F8740110B1082179F06EFDD4F87801EB
:1041900010B1082179F068FDD4F87C0110B1082134
:1041A00079F062FDD4F8800110B1082179F05CFD4E
:1041B000D4F8840110B1082179F056FD2046BDE8FD
:1041C0001040FFF745BA00BF70B5D0F89021044603
:1041D000D3790079ABB18446D4F8C8305D68D4F89F
:1041E000CC30E9B25B681CEA050FDEB241EA060E8C
:1041F00003EA000320EA0E0018BF3043002B47D12A
:104200002071537AB3B10146D4F8C0305E68D4F857
:10421000C430F5B25B6831425FFA83FC03EA000305
:1042200045EA0C0021EA0000C0B218BF4CEA0000C9
:104230005BBB2071D17B94F89531994203D001F09A
:1042400059F8D4F8902194F8943100F00F0160717E
:10425000C0F3071521710BB9294321715079042846
:1042600019D001F05BF894F894312071012B22D021
:10427000022B00D070BD00F033FF0346207963822B
:1042800000F06CFF2571A08270BD0543E8B2D0E755
:104290000143C8B2B4E75278072AE2D89623D34044
:1042A00013F0010F18BF012001F038F894F8943191
:1042B0002071012BDCD100F013FF03462079E3814C
:1042C00000F04CFF2571208270BD00BF2DE9F04148
:1042D0000446104ED6E8AF3F13F0010500F0AC8164
:1042E0000D4821F0A3FD0D4FD0F88851D7E8AF3F1E
:1042F00013F0010600F09081DFF82480D8F8003038
:10430000002B00F08681D7E8AF3F13F0010600F0E4
:10431000A18107E07C520020642D0120685200201A
:10432000902B0120D8F8000003681B6B9847D4F845
:10433000402113682B4018BF9388D4F8C020A38174
:1043400013682B4018BF1379D4F8C42011680D42AC
:104350001CBF12791343D4F8C82011680D421CBF4A
:1043600012791343D4F8CC2011680D421CBF127986
:104370001343D4F8502111680D4203D0526843EA28
:104380000213DBB2D4F8542111680D4203D05268F5
:1043900043EA0213DBB2D4F8582111680D4203D06E
:1043A000526843EA0213DBB2D4F85C2111680D4273
:1043B00003D0526843EA0213DBB2D4F8D020237151
:1043C00013682B4018BF5368D4F8D42011680D42ED
:1043D0001CBF52681343D4F8D82011680D421CBF8B
:1043E00052681343D4F8DC2011680D421CBF526898
:1043F0001343D4F8E02011680D421CBF52681343E8
:10440000D4F8E42011680D421CBF52681343D4F85D
:10441000E82011680D421CBF52681343D4F8EC2009
:1044200011680D421CBF52681343D4F8F020116884
:104430000D421CBF52681343D4F8F42011680D429A
:104440001CBF52681343D4F8F82011680D421CBFFA
:1044500052681343D4F8FC2011680D421CBF526807
:104460001343D4F8002111680D421CBF5268134356
:10447000D4F8042111680D421CBF52681343D4F8CC
:10448000082111680D421CBF52681343D4F80C2157
:1044900011680D421CBF52681343D4F810211168F3
:1044A0000D421CBF52681343D4F8142111680D4209
:1044B0001CBF52681343D4F8182111680D421CBF69
:1044C00052681343D4F81C2111680D421CBF526876
:1044D0001343D4F8202111680D421CBF52681343C6
:1044E000D4F8242111680D421CBF52681343D4F83C
:1044F000282111680D421CBF52681343D4F82C21A7
:1045000011680D421CBF52681343D4F83021116862
:104510000D421CBF52681343D4F8342111680D4278
:104520001CBF52681343D4F8382111680D421CBFD8
:1045300052681343D4F83C2111680D421CBF5268E5
:104540001343D4F84421A36013681D4206D1D4F864
:1045500048311B681D4255D0012200E00022D4F8EA
:10456000803184F894211B68D4F860212B40003BF3
:1045700018BF0123126884F89531154236D1D4F85A
:1045800064214FF6FF731268154208BF0346D4F842
:104590006821E38113681D4232D1D4F86C214FF6B3
:1045A000FF731268154208BF0346D4F870212382B6
:1045B00013681D4222D1D4F874214FF6FF7312689C
:1045C000154208BF0346D4F87821638213681D4260
:1045D0000ED14FF6FF73D4F87C211268154218BF34
:1045E00018460023E382A082BDE8F0810023CEE7D5
:1045F00000230020E382A082BDE8F0810023E2E7EF
:104600000023D2E7D4F84C311B681D4230D002227F
:10461000A5E747F6FF708AE6384693F037FEDFF8E5
:10462000608000283FF46AAE3846C8F8006088F819
:10463000046093F047FE61E6304693F027FE0028C1
:104640003FF44EAE0C4B3046C3E901551D7093F05C
:1046500039FE45E6094893F019FE00283FF462AEA2
:104660000648C8F8006088F8046093F02BFE59E60D
:10467000D4F89031DA7872E7642D01206852002076
:10468000902B01204B1E2DE9F0410D460446542B82
:104690007BD8DFE813F00302CA010D0283007E001D
:1046A0001702F901F202E6020603FC021203DA0223
:1046B000C5029D02B1028902750270026B027E0082
:1046C00062025D02580253024E02490244023F0256
:1046D0003A0221025E0183007E004E013502300263
:1046E0002B022602450116015500F100300101019F
:1046F0001B01DD00C900B5009A007A007A007A003B
:104700007A007A007A007A007A007A007A007A00D9
:104710007A007A007A007A007A007A007A007A00C9
:104720007A008800E501AF01BC01970183016D01AA
:104730006A0166016301C601D401AB01B9014A01F6
:1047400090F81C332A2B20D0BE4FD7E8AF3F13F090
:10475000010600F01783BC4821F0D6FABB4FD7E81A
:10476000AF3F13F0010600F0B282082079F074FA2E
:104770000C26014600230122B54FB6480F60CE71CA
:10478000A1F805200B711EF0AFFD84F81C53BDE8A5
:10479000F081836843F400538360F6E7836843F451
:1047A00080538360F1E790F81C33472BEDD0A54F81
:1047B000D7E8AF3F13F0010600F0D3830521A248EC
:1047C00021F062FA0028C9D1DFE790F81C33322BC0
:1047D000DBD09E4FD7E8AF3F13F0010600F0CF8348
:1047E0000C2079F039FA0E26014600234E229A4F0A
:1047F00098480F600E72CA800B711EF075FDC4E7F9
:1048000090F81C33312BC0D0904FD7E8AF3F13F056
:10481000010600F0C5830C2079F01EFA0E26014631
:1048200000234D228C4FE3E790F81C33302BACD0A3
:10483000864FD7E8AF3F13F0010600F024830C2029
:1048400079F00AFA0E26014600234C22824FCFE768
:1048500090F81C332F2B98D07C4FD7E8AF3F13F044
:10486000010600F04E830C2079F0F6F90E26014681
:1048700000234B22784FBBE790F81C332B2B84D0BE
:10488000704FD7E8AF3F13F0010600F0DD82012141
:104890006D4821F069F978E790F81C332D2B3FF42F
:1048A00074AF6A4FD7E8AF3F13F0010600F0FC8207
:1048B0000C2079F0D1F90E26014600234922664FDB
:1048C00096E7037943F0080303715EE790F81C3321
:1048D0002E2B3FF45AAF5D4FD7E8AF3F13F00106E0
:1048E00000F0C0820C2079F0B7F90E2601460023B3
:1048F0004A22594F7CE790F81C332C2B3FF445AFEC
:10490000524FD7E8AF3F13F0010600F00B830C20A5
:1049100079F0A2F90E260146002348224E4F67E7A0
:10492000037943F0040303712FE74FF6FF734382CB
:104930002BE790F81C33232B3FF427AF414FD7E8E8
:10494000AF3F13F0010600F02B823F4821F0B6F98B
:1049500004E7836843F40073836016E70023C38190
:1049600013E74FF6FF7303820FE7002303820CE780
:10497000344FD7E8AF3F13F0010600F0E681374E21
:1049800094F81C2396F85D39002B40F0B1814D2A34
:104990003FF4FBAE012386F85D39DFE690F81C3367
:1049A0004C2B3FF4F2AEDFF89C80D8E8AF3F13F019
:1049B000010700F00382244ED6F8F43C013BC6F810
:1049C000F43CE2E690F81C334B2B3FF4DEAEDFF80C
:1049D0007480D8E8AF3F13F0010700F076821A4EDA
:1049E000D6F8F43C0133C6F8F43CCEE64FF6FF733C
:1049F0008382CAE690F81C33492B3FF4C6AE0122ED
:104A0000D0F89031DA73A9E600234382BDE690F82E
:104A10001C334A2B3FF4B9AE0022D0F89031DA7340
:104A20009CE64FF6FF73C381AFE690F81C33022B70
:104A30003FF4ABAE0122D0F89031DA708EE600235D
:104A40008382A2E67C520020642D01206452002063
:104A5000CCC70910702B0120B8C70910643D012094
:104A600090F81C33482B3FF490AEBF4FD7E8AF3FD0
:104A700013F0010600F037820621BC4821F004F94A
:104A800000287FF46BAE80E690F81C33072B3FF4D0
:104A90007CAE0122D0F890315A715FE690F81C3359
:104AA000012B3FF472AE0022D0F89031DA7055E657
:104AB00090F81C33032B3FF468AE0222D0F89031FB
:104AC000DA704BE690F81C33062B3FF45EAE002202
:104AD000D0F890315A7141E6836843F48073836063
:104AE00053E6037943F0020303714EE6037943F082
:104AF0000103037149E6836843F40043836044E69D
:104B0000836843F4804383603FE6836843F0800317
:104B100083603AE6836843F04003836035E6836848
:104B200043F02003836030E6836843F01003836022
:104B30002BE6836843F00803836026E6836843F02E
:104B40000403836021E6836843F0020383601CE66C
:104B5000836843F00103836017E690F81C33162B3B
:104B60003FF413AE002021F0F1F90EE6836843F420
:104B70000063836009E6836843F48063836004E62E
:104B800090F81C33122B3FF400AE774FD7E8AF3FBD
:104B900013F0010600F020810421744821F074F81C
:104BA00000287FF4DBADF0E590F81C33112B3FF4C7
:104BB000ECAD6D4FD7E8AF3F13F0010600F0288150
:104BC00003216A4821F060F800287FF4C7ADDCE5D6
:104BD00090F81C330F2B3FF4D8AD634FD7E8AF3FAD
:104BE00013F0010600F006810121604821F04CF825
:104BF00000287FF4B3ADC8E590F81C33102B3FF4C8
:104C0000C4AD594FD7E8AF3F13F0010600F00E8155
:104C10000221564821F038F800287FF49FADB4E512
:104C200090F81C330E2B3FF4B0ADDFF83C81D8E890
:104C3000AF3F13F0010700F086814C4E96F8193E05
:104C400083F0010386F8193E88E590F81C330D2B9C
:104C50003FF49BADD0F89021D37B83F00103D37355
:104C60007CE590F81C33092B3FF48FADD0F89021F0
:104C7000D37983F00103D37170E590F81C33082BCE
:104C80003FF483AD0222D0F890315A7166E590F876
:104C90001C330B2B3FF479AD0322D0F890315A71BD
:104CA0005CE590F81C330A2B3FF46FADD0F89021EF
:104CB000537A83F00103537250E590F81C330C2BA8
:104CC0003FF463AD0422D0F890315A7146E538467E
:104CD00093F0DCFA00283FF448AD254B2548C3E9A2
:104CE00000669E6095F002FC384693F0EBFA3CE5D6
:104CF0004D2A04D1D4E9C83253EA020111D176F029
:104D0000D9F84FF0FF3C6FF000471B4BC31841F13F
:104D100000029C4577EB02013CBF63463A46C4E97A
:104D2000C8321649486A82423FF62FAD896A9942D5
:104D300002D282423FF429AD114BD3E90023C4E9EA
:104D4000C823002386F85D3908E5384693F09EFABB
:104D500000283FF414AE054B3846C3E901661E70C7
:104D600093F0B0FA0BE600BF7C520020642D0120C6
:104D7000702B0120B934001080841E0000000B400D
:104D800060EB0A10384693F081FA00283FF4E3AC58
:104D90008C4B3846C3E901661E7093F093FADAE44F
:104DA000384693F073FA00283FF4CFAD854B384670
:104DB000C3E901661E7093F085FAC6E5404693F09C
:104DC00065FA804E00283FF4F7AD4046C6E901770A
:104DD000377093F077FAEFE5384693F057FA0028EA
:104DE0003FF4DAAE774B3846C3E901661E7093F0A4
:104DF00069FAD1E6384693F049FA00283FF4F4AE58
:104E0000704B3846C3E901661E7093F05BFAEBE61F
:104E1000384693F03BFA00283FF4D2AE694B38464F
:104E2000C3E901661E7093F04DFAC9E6384693F067
:104E30002DFA00283FF4ECAE624B3846C3E9016618
:104E40001E7093F03FFAE3E6384693F01FFA00280D
:104E50003FF41DAD5B4B3846C3E901661E7093F00D
:104E600031FA14E5384693F011FA00283FF43AADD0
:104E7000554B5648C3E900669E6095F037FB3846AF
:104E800093F020FA2EE5384693F000FA00283FF41C
:104E9000D6AC4D4B4D48C3E900669E6095F026FBAD
:104EA000384693F00FFACAE4384693F0EFF9002839
:104EB0003FF4FEAC444B4548C3E900669E6095F064
:104EC00015FB384693F0FEF9F2E4404693F0DEF924
:104ED0003C4E00283FF484AD4046C6E90177377068
:104EE00093F0F0F97CE5384693F0D0F900283FF4D0
:104EF000C3AD344B3846C3E901661E7093F0E2F946
:104F0000BAE5384693F0C2F900283FF4ACAC2E4B1A
:104F10002E48C3E900669E6095F0E8FA384693F0A3
:104F2000D1F9A0E4384693F0B1F900283FF4EFAC92
:104F3000254B2648C3E900669E6095F0D7FA3846AF
:104F400093F0C0F9E3E4404693F0A0F91D4E002829
:104F50003FF474AE4046C6E90177377093F0B2F97A
:104F60006CE6384693F092F900283FF427AC154BD5
:104F70003846C3E901661E7093F0A4F91EE4384672
:104F800093F084F900283FF42BAC0F4B0F48C3E992
:104F900000669E6095F0AAFA384693F093F91FE4F4
:104FA000384693F073F900283FF435AC064B0748B8
:104FB000C3E900669E6095F099FA384693F082F94D
:104FC00029E400BF642D0120702B0120B9340010AA
:104FD000D0F890312DE9F0415F7B7FBB0546044658
:104FE00000F5C07602E01834B44224D094F8A5113C
:104FF0000029F8D0D4F8A821AB6832EA0300F2D136
:1050000094F8A0C128793CEA000EECD1B4F8B0E1E4
:10501000B5F80C803EEA080EE5D120EA0C0023EA40
:1050200002032871AB6028461834FFF72BFBB4420B
:105030004FF00107DAD10FB985F81C73BDE8F08194
:105040001A4AF8B51368591C11603BB94FF0FF318B
:10505000174AC2E90133C2E903331160154A1368E4
:10506000591C116003B1F8BD134C4020C4E9003352
:10507000A36078F0F1FD8646104D00F1400605F181
:1050800040072060A660AC460EF1100EBCE80F0091
:10509000BC4505F110054EF8100C4EF80C1C4EF8EE
:1050A000082C4EF8043CEED16660F8BD5C5200203E
:1050B00044520020585200200C91012070C7091062
:1050C00038B5064D2C68AC4206D0204624680C2129
:1050D00078F0CAFDAC42F8D138BD00BFD84D0020F1
:1050E00000F00C00042819D0082814D070B5194D10
:1050F000D5E8AF3F13F001041DD0174E336833B32A
:10510000D5E8AF3F13F001040AD03068BDE8704025
:1051100003681B6B18474FF6FF70704700207047FD
:105120000C4893F0B3F80028EFD00A48346034718B
:1051300093F0C8F8E9E7284693F0A8F8064E00284F
:10514000DCD028463460347193F0BCF8D6E747F6DB
:10515000FF7070BD68520020902B012000F003000A
:10516000012819D0022814D070B5194DD5E8AF3FE9
:1051700013F001041DD0174E336833B3D5E8AF3FA9
:1051800013F001040AD03068BDE8704003681B6B5F
:1051900018474FF6FF707047002070470C4893F097
:1051A00075F80028EFD00A483460347193F08AF81B
:1051B000E9E7284693F06AF8064E0028DCD0284636
:1051C0003460347193F07EF8D6E747F6FF7070BD17
:1051D00068520020902B0120024B034413F8010C6D
:1051E000704700BFD8C709102DE9F04704460D46A7
:1051F000DFF8F48084B0D8E8AF3F13F0010751D056
:10520000374EDFF8E880DFF8E89008EB050313F885
:10521000013C19F8052023400CD0002A52D03468F4
:10522000B4423BD073681B7A434413F8010C04B0BA
:10523000BDE8F0873468002AF2D0EA46B442CDE9EE
:1052400000AA029325D06F4601E0B44215D0214652
:105250000B7A2468AB42F8D1B942F6D0BC42F4D004
:105260002246384693F0F8F8029AB3680132013BBF
:10527000B442009F0292B360E9D1574508BF246849
:1052800007D038463F680C2178F0EEFC5745F8D13E
:1052900034680023B44209F80530C3D1002004B0BB
:1052A000BDE8F087404692F0F1FF0D4E0028A8D0EF
:1052B0000C48C6E90066B76095F018F9404693F0CF
:1052C00001F89EE70C2078F0C7FC0549057293F0C1
:1052D000D5F80122B36809F805201344B3609EE7AE
:1052E000D84D0020C150001060520020D8C70910CE
:1052F000681B012010B504460121FFF775FF02214C
:105300002046FFF771FF03212046FFF76DFF20467F
:10531000BDE810400421FFF767BF00BF04281DD07F
:1053200001F00302022A034601F00C013ED0032AD9
:1053300027D0012A14D105204FF0090C10B4624C7B
:105340000829227016D00C2934D0042928D0002135
:1053500010465E4B19705DF8044B70470846704765
:10536000002210B4584C08294FF004004FF0080CEC
:105370002270E8D10422554B60465DF8044B1A7048
:10538000704720BB0122504B08291A7072D00C299B
:1053900052D004296CD000214C4B10461970704734
:1053A00003224A4B5DF8044B1A70704706204FF0F9
:1053B0000A0CC3E7022B1DD0032B42D1434B1978B3
:1053C00001BB104600225DF8044B1A70704702289A
:1053D0003AD003281AD000203B4B0829187064D01B
:1053E0000C2960D0042000220429D4D10322374B99
:1053F0001A707047354B19780029E2D0032908BF8D
:105400006046A8E7032918BF6046A4E72E4B1A7828
:10541000002A3FD0012A50D006204FF00A0C022269
:10542000082929D00C29DFD1284B1978002948D028
:10543000032918BF604670471046244B00221A709B
:1054400070471046214BBDE71F480278CAB1012AB8
:105450002ED005204FF0090C012208290CD00C2970
:10546000C2D11A4B197861B3032908BF604670474F
:105470000520BBE74FF0090C0422144B60461A705C
:1054800070470829027010D00C29ABD14FF0080CDE
:105490000420E6E708291A7007D00C29A2D10420BD
:1054A0004FF0080CC0E7094BC8E74FF0080CE3E7E2
:1054B0001A4606204FF00A0CCFE705204FF0090CE2
:1054C000AEE71046BAE700BFD6380220D538022032
:1054D00040687047034B186818B19968091A78F04A
:1054E000C3BB70479C2B01200B682DE9F0479B68DC
:1054F000064608460C469847054630B923682046BC
:105500005B6898472846BDE8F087082078F0A4FB40
:10551000074623682046DB6898477368B2683C609A
:10552000934205D043F8047B28467360BDE8F087BA
:105530006FF06042D6F80090A3EB0904B2EBA40F21
:105540004FEAA4032FD0012B194638BF01215B1865
:1055500026D2934228BF13464FEA8308404678F08C
:105560007BFB002C075104F104078246074408DC4A
:10557000B9F1000F10D10AEB0803C6E900A7B36028
:10558000C0E74946224696F015F9B168A1EB09013A
:10559000484678F069FBEEE7B168A1EB0901F7E74F
:1055A000DFF80C80DAE7014893F0A2F8DCC70910B5
:1055B000FCFFFF7F2DE9F84F0B6806469B68084605
:1055C0000C469847054630B9236820465B689847E3
:1055D0002846BDE8F88F082078F03EFB8046236817
:1055E0002046DB6898477368B268C8F80040934269
:1055F0002AD043F8048B7360344FD7E8AF3F13F0E1
:1056000001060BD02368324A5B6A934218D1616865
:10561000304820F057FF2846BDE8F88F384692F012
:1056200035FE0028EED02B4B2B48C3E90066C3E9BA
:1056300002661E6194F05AFF384692F043FEE1E79D
:10564000204698470146E3E76FF06042D6F800A095
:10565000A3EB0A07B2EBA70F4FEAA70332D0012B47
:10566000194638BF01215B1829D2934228BF13463F
:105670004FEA8309484678F0EFFA002F40F8078098
:1056800007F10408834680440ADCBAF1000F12D106
:105690000BEB0903C6F80480C6F800B0B360ABE7B3
:1056A00051463A4696F086F8B168A1EB0A01504699
:1056B00078F0DAFAECE7B168A1EB0A01F7E7DFF876
:1056C0002090D7E7054893F013F800BF70520020F0
:1056D000D15400109C2B0120D5540010DCC70910B8
:1056E000FCFFFF7F38B5D0E900439C4209D0054656
:1056F00054F8043B186803681B6A98476B689C421F
:10570000F6D138BD38B5D0E900439C4209D00546F2
:1057100054F8043B186803685B6998476B689C42BF
:10572000F6D138BD38B5D0E900439C4209D00546D2
:1057300054F8043B186803681B6998476B689C42DF
:10574000F6D138BD70B5D0E900439C420BD0054678
:105750000E4654F8043B3146186803689B69984725
:105760006B689C42F5D170BDF0B585B004AC04E91E
:105770000E00037E9DF805500446AB42BDF806605E
:1057800076D19A4B41695A6A006991426ED89B6AF8
:105790008342C0F0D980D4F81D209DF80430C4F8AD
:1057A0001920002203F0010161F30702C3F3400155
:1057B00061F30F22C3F3800161F31742C3F3C00307
:1057C00063F31F62033DC4F81D20032D2CD8DFE8CE
:1057D00005F0A88B6F02DDE90252002D40F0B88081
:1057E000638B217F83F4807383F001030029E383BB
:1057F00012BF2B4601231546627E84F8203082F0CA
:105800000102627775F056FB4FF47A734FF0FF3662
:105810006FF00042E5FB0301864272EB010301D207
:1058200030461146C4E90401637F002B3DD094F853
:10583000213013FB03F3DB439BB2A27FA3808AB327
:1058400094F8213013FB03F3DB439BB2E27FE38048
:105850002AB394F8213013FB03F3DB439BB294F893
:1058600020202381A2B94FF6FF73638105B0F0BDFC
:105870000027C0F81970C0F81D7075F01BFBFF23DE
:10588000C4E9040184F82270257684F8213082E787
:1058900094F8213013FB03F3DB439BB2E5E74FF6AB
:1058A000FF73DCE74FF6FF73D0E74FF6FF73C4E7F3
:1058B00094F8222094F82130002A5FD00533DBB21F
:1058C000FF2B84F8213072D075F0F4FA44F620638F
:1058D0004FF0FF356FF00042C01841F100018542E2
:1058E00072EB01039ED219E0637E002B67D1A27E8A
:1058F000002A6ED1E37E002B6FD1227F002A70D167
:1059000075F0D8FA4FF47A734FF0FF356FF000421C
:10591000E6FB0301854272EB010383D22846114660
:1059200080E7637E0BB100236377A37E0BB1002376
:10593000A377E37E0BB10023E377237F002BDFD037
:10594000002384F82030DBE791427FF424AF8DE719
:10595000F2B9637E13B101232A466377A37E13B1A4
:1059600001232A46A377E37E13B101232A46E37776
:10597000237F03B3012384F8203043E7053BDBB2E8
:1059800084F82130002B9FD1012384F822309BE73B
:10599000638B617E83F4807383F00103E383237F51
:1059A00081F00101617743B915460123E3E7002344
:1059B00084F8223088E7154624E70023DBE700233C
:1059C0000121C4F81D30012201F0030323445A775A
:1059D00096E70221C4F81D30F5E70321C4F81D2025
:1059E000F1E70421C4F81D30EDE700BF00000B40D3
:1059F0008A228C232DE9F041471E02FB01F403FBB0
:105A000007F7DFF84080E519454482B0E97806469B
:105A10007AF092FF18B9002002B0BDE8F0810C3492
:105A20003C4408EB04020024E9782B893046CDE998
:105A300000447AF0C7FF0028EED13046E9787AF0CA
:105A4000A1FFE8E7A85600202DE9F04F8A24174669
:105A50008C229A46431E02FB03F804FB01F6DFF892
:105A60008CB006EB08045C44628985B052450DD2C7
:105A70004FF0E023D3F8F03DDB0705D44FF00009E9
:105A8000484605B0BDE8F08F00BEF7E705467AF05E
:105A9000EBF82179814628467BF006F80390B9F1AE
:105AA000000FEBD021790029E8D00028E6D1284664
:105AB0007AF042FF81460028E0D04C3646445E44EE
:105AC00039465246304695F075FE03982179534683
:105AD000CDE90000324628467AF074FF0028CFD185
