:020000041000EA
:10000000002008205D0100101B0100101D010010E0
:100010001101001011010010110100101101001058
:100020001901001019010010190100101F01001022
:10003000110100101901001021010010230100100E
:100040001101001011010010110100101101001028
:100050001101001011010010110100101101001018
:100060001101001011010010110100101101001008
:1000700011010010110100101101001011010010F8
:1000800011010010110100101101001011010010E8
:1000900011010010110100101101001011010010D8
:1000A00011010010110100101101001011010010C8
:1000B00011010010110100101101001011010010B8
:1000C00011010010110100101101001011010010A8
:1000D0001101001011010010110100101101001098
:1000E0001101001011010010110100101101001088
:1000F0001101001011010010110100101101001078
:100100001101001011010010110100101101001067
:10011000EFF30580103800BE00BE00BE00BE00BE7A
:1001200000BE00BEF2EB8871246512104865121003
:10013000A001001090A31AE7D3DEFFFF42012110B7
:10014000FF01000010B01200793512AB4FF0000033
:100150001E49086006C881F3088810474FF05040D8
:10016000006810B14FF00000F2E70DA40ECC00299A
:1001700002D000F012F8F9E71549164A002000E015
:1001800001C19142FCD11449884714498847144958
:10019000884700BEFDE701C901C29A42FBD3704700
:1001A0004865121020010020204D002048B1121097
:1001B000000008200000082048B11210001008209C
:1001C00000100820000000007047000008ED00E06B
:1001D000204D0020D83802200DCD07105902001004
:1001E00005CD0710F8B500BF064B0749C91A89109D
:1001F00048BF0131491003D0044B0BB101481847E7
:10020000704700BF204D0020204D0020000000005E
:1002100008B5054B1BB105490548AFF30080BDE8A3
:100220000840FFF7E1BF00BF00000000C415022036
:10023000289C091010B5054C80F022FC206802F0C3
:1002400045FF2068BDE8104003F0A8B8A456002080
:1002500008B597F097FD000070B54FF487607BF00C
:100260004FF90025044603F04FF9C4E9CA55C4F814
:10027000305304F57E7000F075FD164E04F21C43F9
:10028000C4F82434C4F8283484F81C54C4F8205426
:10029000C4F82C54C4F83054C4F8345414203460D6
:1002A0007BF02EF905460C4C02F008FF3068256003
:1002B00002F04EF9094880F0BFFB23681B7C23B98C
:1002C00000BF23681B7C002BFAD0306800F0C4FE0E
:1002D000002070BDA0560020A4560020350200105A
:1002E000704700BF90F82C00704700BF704700BFF8
:1002F00090F82C00704700BF704700BF90F82C00AA
:10030000704700BF704700BF90F82C00704700BFD7
:10031000704700BF90F82C00704700BF704700BFC7
:10032000C079704710B44FF0010C00240A680368CC
:1003300051799279C3F8344483F830C45DF8044BA2
:1003400083F8311483F83324704700BF4FF0010C59
:100350000A680368926883F833C4C3F8342470478A
:1003600000B5094883B090F051F9074890F022F9A0
:10037000054B3C3B1846019390F048F9019803B0B7
:100380005DF804EB90F016B92C2C012010B5044652
:1003900008217BF0BDF8204610BD00BF10B5044613
:1003A00030217BF0B5F8204610BD00BF10B50446E3
:1003B00030217BF0ADF8204610BD00BF10B50446DB
:1003C00030217BF0A5F8204610BD00BF10B50446D3
:1003D00030217BF09DF8204610BD00BF10B50446CB
:1003E00030217BF095F8204610BD00BF034B186804
:1003F00018B19968091A7BF08BB870479C2B0120C3
:100400002DE9F041DFF86880D8E90067BE4218D0D6
:10041000D6E90145AC4209D0A368DBB121462046AC
:10042000032210349847A542F6D17568BDB1F16832
:100430002846491B10367BF06BF8B742E8D1D8F854
:10044000007097B1D8F808103846C91BBDE8F041D4
:100450007BF05EB81034A542DED17568E6E7103651
:10046000B742D5D1D8F80070EBE7BDE8F08100BF06
:10047000702B012070B50D46018AAB6804468B4293
:10048000164608D0428A934205D01E4BD3E900237A
:10049000C0E9062370BDD4E9060150EA01030FD07C
:1004A000194B5A6A9142F5D89B6A83421FD3AB68B5
:1004B000228A93421ED0628A9342EBD113481BE0FA
:1004C00078F03CFB4FF0FF3C6FF00042104BC0183F
:1004D00041F10001844572EB01033CBF11466046C7
:1004E000094BC4E906015A6A9142D3D8DCE791422C
:1004F000DDD1CFE726B90748BDE8704024F0B6BF8C
:100500000548F9E7B0C20A1000000B40E1E437F7F4
:1005100000093D00A58477E7CD66D543012A06D0C2
:10052000022A0AD0032A00D022B1002070470160BD
:10053000002070470260002070470B6803600020B5
:10054000704700BF012A06D0022A0AD0032A00D031
:1005500022B1002070470160002070470260002037
:1005600070470B6803600020704700BF01232DE92E
:10057000F04F00244FF07E55924600F1180287B0EC
:100580000646C0E9002300F11003C0E90244C0E9B7
:10059000054405610F46184621460293039295F0E3
:1005A00085FD7368984213D90128054600F0F5804F
:1005B000B0F1005F80F0E5804FEA800840467AF0B5
:1005C0009FFF21464246044698F0DCF9C6E9004503
:1005D000BA4512D0F1680837B94637F8084C0029F7
:1005E00043D1B36813B90BE01B684BB19A88A242A0
:1005F000FAD1CA4507F10807EED107B0BDE8F08F80
:100600007368B4FBF3F503FB15450C207AF078FF13
:100610000123009337F8083C804683800023036061
:1006200057F8043C029983607268F36804A895F057
:100630009BFD9DF81030002B47D1D6F800B05BF839
:1006400025300BEB8502002B7CD01B68C8F80030EE
:100650005BF82530C3F80080F168CA4501F101015B
:10066000F16007F10807B7D1C7E7D6E90010B4FB7E
:10067000F0FC0D4600FB1C4C55F82C1019B30A6811
:1006800093889646A3420DD0DEF80020DAB1938815
:100690007146B3FBF0FE00FB1E3EE64513D1A342BC
:1006A0009646F1D10B6873B1D14507F10807A4D084
:1006B00037F8084CB946B4FBF0FC00FB1C4C55F86D
:1006C0002C100029DBD165469FE7059D012D5DD0EB
:1006D000B5F1005F55D24FEA850B58467AF010FF0E
:1006E0005A460021834698F04DF90023B068B36064
:1006F000A0B14FF0000E06F1080C02469388006886
:10070000B3FBF5F105FB11335BF8231061B3096806
:1007100011605BF823301A600028EED1D6E90001A1
:10072000039B834202D089007AF0F2FEB4FBF5F31A
:10073000C6E900B505FB13455BF825300BEB8502D8
:10074000002B82D1B368C6F80880C8F800303BB1EE
:100750009B887068B3FBF0F100FB11334BF82380EA
:1007600006F10803136077E7B1681160B2604BF8D7
:1007700023C0116809B14BF82E209E460028BCD139
:10078000CCE7B5F1804F06D395F0DEFB0023DDF812
:100790000CB0B361A9E795F0C7FBB461039C15E702
:1007A00001232DE9F04F00244FF07E55924600F1D1
:1007B000180287B00646C0E9002300F11003C0E923
:1007C0000244C0E9054405610F46184621460293DC
:1007D000039295F06BFC7368984213D90128054683
:1007E00000F0F980B0F1005F80F0E9804FEA800806
:1007F00040467AF085FE21464246044698F0C2F80B
:10080000C6E90045BA4512D0F1680837B94637F84D
:10081000084C002947D1B36813B90BE01B684BB1F2
:100820009A88A242FAD1CA4507F10807EED107B06B
:10083000BDE8F08F7368B4FBF3F503FB15450C209E
:100840007AF05EFE0123009337F8083C80468380EF
:100850000023036057F8063C0299C0F8063037F8C9
:10086000023C72684381F36804A895F07DFC9DF812
:100870001030002B47D1D6F800B05BF825300BEBD9
:100880008502002B7CD01B68C8F800305BF825304F
:10089000C3F80080F168CA4501F10101F16007F178
:1008A0000807B3D1C3E7D6E90010B4FBF0FC0D464E
:1008B00000FB1C4C55F82C1019B30A689388964617
:1008C000A3420DD0DEF80020DAB193887146B3FB65
:1008D000F0FE00FB1E3EE64513D1A3429646F1D141
:1008E0000B6873B1D14507F10807A0D037F8084C61
:1008F000B946B4FBF0FC00FB1C4C55F82C10002949
:10090000DBD165469BE7059D012D5DD0B5F1005F0C
:1009100055D24FEA850B58467AF0F2FD5A4600212F
:10092000834698F02FF80023B068B360A0B14FF071
:10093000000E06F1080C024693880068B3FBF5F13F
:1009400005FB11335BF8231061B3096811605BF894
:1009500023301A600028EED1D6E90001039B8342C0
:1009600002D089007AF0D4FDB4FBF5F3C6E900B5F6
:1009700005FB13455BF825300BEB8502002B82D17C
:10098000B368C6F80880C8F800303BB19B8870682F
:10099000B3FBF0F100FB11334BF8238006F10803A1
:1009A000136077E7B1681160B2604BF823C011683B
:1009B00009B14BF82E209E460028BCD1CCE7B5F1FA
:1009C000804F06D395F0C0FA0023DDF80CB0B36178
:1009D000A9E795F0A9FAB461039C11E738B50B4D6E
:1009E000D5E8AF3F13F0010401D0094838BD2846CF
:1009F00095F0A0F80028F8D0054B2846C3E901443B
:100A00001C7095F0B3F8024838BD00BF7C5200203E
:100A1000642D012038B50A4DD5E8AF3F13F001042D
:100A200001D0084838BD284695F084F80028F8D051
:100A3000044B28461C601C7195F098F8014838BD9D
:100A400068520020902B01202DE9F84381461C4D6F
:100A5000D5E8AF3F13F0010425D000234FF0010883
:100A60001C461D461F46174EC9F8343336F914305C
:100A7000002B10DD284676F063FF47EC445000223F
:100A80000121284676F00AFFD9F8343308FA05F236
:100A90001343C9F834330A34B4F5F07F05F1010586
:100AA000E4D1BDE8F883284695F044F80028D4D076
:100AB000054B2846C3E901441C7095F057F8CCE774
:100AC0007C520020C67F0120642D01202DE9F843CF
:100AD000044610EE1870FF43DFF8C480D8E8AF3F3B
:100AE00013F001054BD0DFF8B4902C4824F02EFC15
:100AF000D4F83433D0F888213B409A4206460BD0D4
:100B0000D8E8AF3F13F001052CD0D9F86C80B8F1CC
:100B1000000F03D1C6F88871BDE8F88302F0E0FC4D
:100B200000234FF0010CD4F8345304F54E710CFA45
:100B300003F2154203F101030ED0D6F8884184EA8E
:100B4000070E1EEA020F07D054400A68821A424577
:100B500084BFC6F888410860302B01F10401E6D15A
:100B6000BDE8F8830E4894F0E5FF0028CDD00C488E
:100B7000C9E9015589F8005094F0F8FFC5E74046EF
:100B800094F0D8FFDFF814900028AED04046C9E9B1
:100B9000015589F8005094F0E9FFA6E7642D012083
:100BA0007C5200202DE9F843044624F093FC674B67
:100BB000984210D0664B984203D078B10020BDE82F
:100BC000F8830220BDE8F88395055BD53179C90724
:100BD000F7D4012B56D90120BDE8F8835D4FD7E843
:100BE000AF3F13F001056ED0DFF86C815A4824F056
:100BF000ADFB0646D7E8AF3F13F001057DD0564860
:100C000024F0A8FB05462046FFF760FF04F54A796B
:100C1000304603F035FB484604F04EFD304603F005
:100C2000ADFA484604F058FD2B1D321D06F1240193
:100C3000D2F800E0D2F804C09568D06810328A4239
:100C4000C3F800E0C3F804C09D60D86003F110034E
:100C5000EED112681A60D7E8AF3F13F001055AD001
:100C60003E4BB26893F83A3902F48071012B39D0C7
:100C7000032B5DD0023BDBB20029A5D1012B01D9AA
:100C80009305A8D4D4F8203404F21C44002B95D04A
:100C9000204619698A4206D89968184631B10B4630
:100CA00019698A42F8D9DB68002BF2D1844285D0D9
:100CB00003699A4282D34369102B3FF67FAF284ADB
:100CC00052F823007EE7384694F034FFDFF888803E
:100CD00000288BD03846C8E9015588F8005094F0B8
:100CE00045FF83E702F4007269B3002A3FF466AF60
:100CF000307900F00100013064E7164894F01AFFE3
:100D000000283FF47CAF1348C8E9015588F800502B
:100D100094F02CFF73E70F4894F00CFF00289FD04D
:100D20000C48C8E9015588F8005094F01FFF97E778
:100D300000293FF443AF90057FF540AF307900F0D4
:100D4000010040003EE7C2F340203BE7A58477E77F
:100D5000E1E437F77C520020642D0120645D01201E
:100D6000289C0910054B002293ED007B044980ED7F
:100D7000027B80ED067B016102707047B0C20A10F1
:100D80000C020C012DE9F84314460B8912890D461B
:100D900032EA030104D128782178814300F0BD8034
:100DA000774FD7E8AF3F13F0010600F0C280302044
:100DB0007AF0A6FB0146002247F6FF7E6FF08028FE
:100DC0000927704B2E78CB610B624B628B622378C4
:100DD000C1E9012223EA06036A680B72A388DFF8DF
:100DE000B4C123EA0203CB602A892389DFF8A891E2
:100DF00023EA0203C1E9049863480B82C1F818E0B2
:100E0000C1F800C081F82C7021F0FEFC2B892289EA
:100E1000934303D122782B78934364D0584FD7E87B
:100E2000AF3F13F0010668D030207AF069FB01462D
:100E300000226FF0802847F6FF7E0827514B267866
:100E4000CB610B624B628B622B78C1E9012223EAF2
:100E5000060362680B72AB88DFF840C123EA020325
:100E6000CB6022892B89DFF8309123EA0203C1E9A4
:100E700004984548C1F818E0C1F800C081F82C700A
:100E80000B8221F0C1FC62896B899A4203D1E2682E
:100E9000EB689A426ED03A4ED6E8AF3F13F00105A8
:100EA00058D030207AF02CFB002301460B250B8113
:100EB0000B71CB600B82A389324A8B82E389334E5C
:100EC000CB82238A67890B83638A4F824B830E60B0
:100ED00081F82C502C48CA610A624A628A62BDE8D5
:100EE000F84321F091BC62686B689343CBD0244FE8
:100EF000D7E8AF3F13F0010696D1384694F01AFEBA
:100F0000002891D0204B2248C3E900669E6096F0ED
:100F100041FF384694F02AFE86E76868616881439D
:100F20003FF476AF164FD7E8AF3F13F001067FF4DA
:100F30003EAF384694F0FEFD00283FF438AF124B28
:100F40001348C3E900669E6096F024FF384694F08B
:100F50000DFE2CE7304694F0EDFD0028A1D00A4BA1
:100F60000B48C3E900559D6096F014FF304694F09D
:100F7000FDFD96E722692B699A428CD1BDE8F88382
:100F80006452002000FEFF46702B01204C9F091088
:100F900001040010389F09100000FF7F249F0910F2
:100FA00090F8303470B504467BBB94F83334ABB959
:100FB000244BD3E9000150EA01030ED0224B5A6AB8
:100FC00091420AD89B6A834205D3D4F83404BDE821
:100FD000704024F04BBA9142F7D170BD002384F8E1
:100FE000333477F0ABFD4FF0FF356FF00042174B15
:100FF000C01841F10001854272EB01033CBF284655
:101000001146104BC3E90001D5E70023104E80F8CC
:101010003034D6E8AF3F13F0010505D094F8311411
:101020000C4824F031F8C0E7304694F083FD0028E6
:10103000F4D0084B3046C3E901551D7094F096FD7D
:10104000ECE700BF804D002000000B4020A107000E
:101050007C520020642D01202DE9F04F2DED028BF4
:10106000A9B08346FFF7D6FC03790693FFF7D2FCBD
:1010700003680593FFF7B2FC24F068F98246FFF796
:10108000ADFC24F067F90546002080F05DF9C64B01
:10109000D3E8AF4F14F0010400F0EB82C34B0B9385
:1010A000C24824F029FC069BFF2B00F0F6829FED3E
:1010B000C08A2B1D09930BF54A7303930AF10403AD
:1010C00001930AF1240304930BF5806307930BF556
:1010D0007E730893DFF80093B64BD3E8AF3F13F06D
:1010E000010400F05281B44BDAF88C615D6EAE42BF
:1010F00065D0B04BD3E8AF3F13F0010400F071822C
:101100000024274639F91430002B02DD384676F0EA
:101110003BFC0A34B4F5F07F07F10107F2D1A54B8F
:10112000D3E8AF3F13F0010400F04D82A24824F051
:10113000B7F8A04BD3E8AF3F13F0010400F03582BD
:1011400000270124B846CBF8347339F91730002B47
:1011500011DD404676F0F4FB002343EC448001218E
:101160001A46404676F09AFBDBF8343304FA08F26C
:101170001343CBF834330A37B7F5F07F08F1010891
:10118000E3D1504602F0C6FE039804F085FA8B4B7B
:10119000CAF88C51D3E8AF3F13F0010400F0F4819A
:1011A00008207AF0ADF9042301460022CB71844B6C
:1011B00084480A714E718D710B6021F025FB019CF2
:1011C0000DAE3546E36820686168A26810340FC52B
:1011D000049B10369C42F4D1186830600E9BBDF819
:1011E0003C80584602939DF83440FFF76FFC504610
:1011F00003F046F86FEA0802BAF80C300A9233EAB4
:10120000080240F00A829AF80420E643A24300F064
:101210006781029BDD43694BD3E8AF3F13F00107C1
:1012200000F06C8130206FEA08077AF069F99AF8CB
:10123000043001463340BAF808606FF0802E2E402B
:10124000BAF80C5000222F403D465F4F47F6FF7C16
:10125000C1E9047E0D824FF00705C1E901220B723E
:101260005A4B81ED078A0B6081ED088A81ED098A6E
:1012700081ED0A8A5348C1F818C0CE6081F82C501D
:1012800021F0C2FABAF80C3038EA03030AD19AF80E
:10129000043034EA030305D1DAF80830029A32EA5E
:1012A000030339D0454BD3E8AF3F13F0010500F0FD
:1012B000498130207AF024F90146DAF80820029DAD
:1012C0009AF804E0002325EA020292B224EA0E040E
:1012D0006FF08027BAF80CE047F6FF76CA604FF04F
:1012E0000602C1E90133DFF8E0C0394B28EA0E0EEF
:1012F000C1E904C781ED078A81ED088A81ED098A79
:1013000081ED0A8A2F488E61A1F810E081F82C2027
:101310000C720B6021F078FA234BD3E8AF3F13F047
:10132000010400F0FC80214824F0AAFB069BFF2B5F
:1013300054D10598514603689B6898479BF8F83349
:10134000002B40F01081DAF80830002B40F0578174
:10135000079BD3E9002352EA030100F062811D4993
:10136000486A834207D8896A914201D2834202D0F7
:1013700001238BF8F8335846FFF712FE0D4BD3E8E4
:10138000AF3F13F001047FF4AEAE0A4894F0D2FBF5
:1013900000283FF4A8AE084B0648C3E901441C707E
:1013A00094F0E4FB9FE600BF705200209C2B0120CC
:1013B00000FEFF467C520020642D01206452002074
:1013C000609F0910702B01200000FF7F109F091003
:1013D000FC9E091000000B40C67F0120039C2046A4
:1013E00004F06AF9504602F0C9FE204604F074F990
:1013F000504603F0C7FD9BF8F833002B40F0B9804E
:10140000DAF80830002B40F00181079BD3E9002374
:1014100052EA030100F01981A149486A834207D8C2
:10142000896A914201D2834202D001238BF8F833BA
:10143000019C099D224629465846FFF7A3FC2146F8
:1014400023462A4620311E685D689C68D8681033A0
:101450008B42166055609460D06002F11002F2D1A8
:101460001B6813604FF05043059A9B6812689B07F6
:10147000D2F8088000F18380019B1FAE1C469C4679
:101480000FCCB64616AD0FC50FCC0FC5854F2368E0
:101490002B600FCF0FC60FCF0FC6BEE80F00ACE812
:1014A0000F00BEE80F003F68ACE80F003760514600
:1014B00027600598C047D5F800C0019D16AF0646C5
:1014C0000FCF0FC50FCF0FC5C4F800C000214FF0DC
:1014D000FF307FF0AFFF3146039804F00DF94AE783
:1014E0000299DAF80820CD438A433FF4CDAE6E4B23
:1014F000D3E8AF3F13F001077FF494AE6A4894F04D
:1015000019FB00283FF48EAE684B6948C3E90077A9
:101510009F6096F03FFC644894F028FB82E66548A3
:1015200094F008FB00283FF4FEAE0B9B6248C3E931
:101530000044C3E902441C6196F02CFC5D4894F021
:1015400015FBF0E6584894F0F5FA00283FF4B1AEE8
:10155000564B5748C3E900559D6096F01BFC524816
:1015600094F004FBA5E6012251460898FEF782FF9D
:1015700001E7002251460898FEF77CFF58E75146E4
:101580000598C0470646A1E7474894F0D3FA0028DB
:101590003FF406AE454B4648C3E900449C6096F0D4
:1015A000F9FB414894F0E2FAFAE5444894F0C2FAB3
:1015B00000283FF4C5AD424B4048C3E901441C70CC
:1015C00094F0D4FABCE53D4894F0B4FA00283FF416
:1015D000ADAD3B4B3948C3E901441C7094F0C6FAE9
:1015E000A4E5364894F0A6FA00283FF489AD344BC0
:1015F0003248C3E901441C7094F0B8FA80E5314BDD
:101600000799D3E90023C1E90023B4E62D4B0799DC
:10161000D3E90023C1E900230AE7029BE643DD4347
:10162000F9E577F08BFA4FF0FF356FF0004410F1D9
:10163000320241F10003954274EB03013CBF2A469C
:1016400023460799C1E9002389E677F077FA4FF03E
:10165000FF356FF0004410F1320241F10003954272
:1016600074EB03013CBF2A4623460799C1E90023D6
:10167000D2E6104894F05EFA134B0B9300283FF427
:101680000FAD0D48C3E90044C3E902441C6196F064
:1016900081FB084894F06AFA02E58EF0FBFA06E551
:1016A00000000B40709F091064520020702B012035
:1016B0000104001070520020ED0300107C52002045
:1016C000642D0120B0C20A109C2B0120F8B5002720
:1016D00004464E68CB680D46C0E90273103100F134
:1016E0001003012EC0E9007603C983E80300A76157
:1016F00008BF04F118070BD0B6F1005F4AD2B6005C
:10170000304679F0FDFE39463246074697F03AF901
:10171000AE682760002E3BD00C2079F0F1FE074622
:10172000331D93E8030000253B4643F8045B83E840
:101730000300D4F804C0BB882246B3FBFCF10CFBC9
:10174000113352F808EBA7604EF823203668FEB13B
:101750000C2079F0D5FED4E900EC0346321D92E866
:1017600003001A4642F8045B82E803009A883B6053
:10177000B2FBFCF10CFB11225EF8221019B13668A5
:1017800036B11F46E4E74EF822703668002EF8D1D5
:101790002046F8BDB6F1804F01D394F0D5FB94F00C
:1017A000C3FB00BFF8B5002705464E68CB680C4662
:1017B000C0E90273103100F11003012EC0E9007678
:1017C00003C908BF05F1180683E80300AF610BD019
:1017D000B6F1005F4ED2B600304679F091FE324647
:1017E0003946064697F0CEF8A4682E60002C3FD00C
:1017F0000C2079F085FE002603460746D4F808C081
:10180000D4F804E043F8046BC7F804E0C3F804C05C
:101810006968BB882A46B3FBF1FC01FB1C33A86056
:1018200052F8080B40F8232024680CB30C2079F000
:1018300067FED5E900120346D4F808C0D4F804E0E6
:1018400043F8046BC0F804E0C3F804C08388386030
:10185000B3FBF2FC02FB1C3351F823201AB12468BD
:1018600034B10746E2E741F823702468002CF8D130
:101870002846F8BDB6F1804F01D394F065FB94F093
:1018800053FB00BF2DE9F04F4FF07E5C0025012493
:1018900087B00F46194600F118030360064603930C
:1018A00000F11003C0E90255C0E90555C0F810C0A9
:1018B000446018460293924694F0F8FB736898428D
:1018C00013D90128044600F00181B0F1005F80F0D7
:1018D000F8804FEA8008404679F012FE29464246D9
:1018E000054697F04FF8C6E90054574515D0F16802
:1018F0000437BB4637F8044C00294AD1B36813B902
:101900000FE01B686BB19A88A242FAD1B94609F17F
:101910003809CA4507F13C07EBD1304607B0BDE8AE
:10192000F08F7368B946B4FBF3F503FB154540200F
:1019300079F0E6FD3BF8043C80468380002359465D
:1019400003600830FFF7C2FE07F11C0108F1240014
:10195000FFF728FF01230093F3680299726804A837
:1019600094F002FC9DF81030002B44D1D6F800B062
:101970005BF825300BEB8502002B79D01B68C8F88B
:1019800000305BF82530C3F80080F1680131F16068
:10199000BDE7D6E90010B4FBF0FC0D4600FB1C4C83
:1019A00055F82C1021B30A6893889646A3420DD0AF
:1019B000DEF80020E2B193887146B3FBF0FE00FB35
:1019C0001E3EE64514D1A3429646F1D10B687BB189
:1019D00007F13C0B3837BA459FD03BF8044C5F46C3
:1019E000B4FBF0FC00FB1C4C55F82C100029DAD19C
:1019F0006546B9469BE7059D012D58D0B5F1005FBE
:101A00005AD24FEA850B584679F07AFD5A460021A2
:101A1000834696F0B7FF0023B068B360A0B14FF0E3
:101A2000000E06F1080C024693880068B3FBF5F13E
:101A300005FB11335BF8231061B3096811605BF893
:101A400023301A600028EED1D6E90001039B8342BF
:101A500002D0890079F05CFDB4FBF5F3C6E900B56E
:101A600005FB13455BF825300BEB8502002B85D178
:101A7000B368C6F80880C8F800303BB19B8870682E
:101A8000B3FBF0F100FB11334BF8238006F10803A0
:101A900013607AE7B1681160B2604BF823C0116837
:101AA00009B14BF82E209E460028BCD1CCE700237C
:101AB000DDF80CB0B361AEE7B5F1804F04D394F01C
:101AC00043FAB0F1804FFAD294F02EFAB561039D3B
:101AD00009E700BF2DE9F04F06462DED028B354694
:101AE000ADF26C4DAE4C0AAB019309AB009345F8D7
:101AF000144B059500254FF0010AAA4A08ABA2F144
:101B0000100132A8FEF732FD0DABA74A01930CABD2
:101B1000009339ABA2ACA2F1100118460BABFEF753
:101B20003FFE32A92580A3A8FFF7D0FD39A9AAA8B6
:101B3000FFF738FE10AB9D4A01930FAB009340AB0B
:101B40001846A2F178010EABFEF710FD13AB984AD0
:101B5000019312AB009347ABA2F13001184611ABD1
:101B6000FEF71EFEA4F83CA040A9B2A8FFF7AEFD08
:101B700047A9B9A8FFF716FE8E4A16AB4EAF0193E0
:101B800015ABA2F120013846009314ABFEF7EEFC32
:101B90000623B7EE008A3946A4F87830C1A85BABBB
:101BA000FB6187ED0B8AC7E908A53D635B955895F6
:101BB000FFF78CFD55A9C8A8FFF7F4FD19AB7E4AC5
:101BC000019318AB00935CAB1846A2F1500117AB20
:101BD000FEF7CCFC1CAB794A01931BAB009363ABC3
:101BE000A2F1180118461AABFEF7DAFD03235CA92F
:101BF000A4F8B430D0A8FFF769FD63A9D7A8FFF710
:101C0000D1FD1FAB6E4A01931EAB00936AAB184621
:101C1000A2F140011DABFEF7A9FC22AB694A01937A
:101C200021AB009371ABA2F11001184620ABFEF777
:101C3000B7FD04236AA9A4F8F030DFA8FFF746FD3A
:101C4000E6AB184671A9FFF7ADFD5F4A25AB0DF570
:101C5000F07B019324ABA2F148015846009323ABDB
:101C6000FEF784FC28AB594A019327AB00937FAB66
:101C7000A2F13001184626ABFEF792FD0523594626
:101C8000A4F82C31EEA8FFF721FD7FA9F5A8FFF7F6
:101C900089FD4F4A2BAB0DF5067801932AABA2F1D3
:101CA00018014046009329ABFEF760FC082341462B
:101CB000A4F86831FDA893ABC8F81C3088ED0B8AF6
:101CC000C8E908A5C8F8305093959095FFF7FEFC39
:101CD0008DA90DF58260FFF765FD3E4A2EAB0DF52F
:101CE000147901932DABA2F11801484600932CAB57
:101CF000FEF73CFC09234946A4F8A4310DF58660A3
:101D0000A1ABC9F81C3089ED0B8AC9E908A5C9F84F
:101D10003050A1959E95FFF7D9FC9BA90DF24C4040
:101D2000FFF740FD4FF000038DF80C3031AB02930C
:101D300030AB01932FAB009321462B4605980DF550
:101D40008D62FFF79FFD0DF22C4A0596DAF82860A8
:101D500036B1304636680C2179F0DAFB002EF8D126
:101D6000DAF8242000219200DAF8200096F00AFE2A
:101D7000DAF820000AF138029042CAE90A55DAF886
:101D8000241002D0890079F0C3FBDAF80C601EB38E
:101D9000304636680C2179F0BBFB002EF8D11BE0F1
:101DA00050990A10F49E0910E49E0910D49E09105F
:101DB0005C9E09102C9E09100C9E0910BC9D0910F8
:101DC000A49D0910649D0910549D09100C9D0910D3
:101DD000DC9C0910C49C0910DAF80820002192004C
:101DE000DAF8040096F0CEFDDAF804000AF11C02DD
:101DF0009042CAE90355DAF8081008D0890079F052
:101E000087FB5445AAF13C0205D092469EE7544513
:101E1000AAF13C02F9D1D9F82450059E35B12846E3
:101E20002D680C2179F074FB002DF8D1D9F8202011
:101E30000021D9F81C00920096F0A4FDD9E9070111
:101E40000023C9E90933A1AB984202D0890079F097
:101E50005FFBD9F8085035B128462D680C2179F080
:101E600057FB002DF8D1D9F804200021D9F8000043
:101E7000920096F087FDD9E900010023C9E90233F9
:101E80009AAB984202D0890079F042FBD8F82450EE
:101E900035B128462D680C2179F03AFB002DF8D198
:101EA000D8F820200021D8F81C00920096F06AFD96
:101EB000D8E907010023C8E9093393AB984202D05F
:101EC000890079F025FBD8F8085035B128462D68EF
:101ED0000C2179F01DFB002DF8D1D8F80420002149
:101EE000D8F80000920096F04DFDD8E900010023DB
:101EF000C8E902338CAB984202D0890079F008FB24
:101F0000DBF8245035B128462D680C2179F000FB10
:101F1000002DF8D1DBF820200021DBF81C00920016
:101F200096F030FD0023DBF81C00CBE9093385ABCC
:101F30009842DBF8201002D0890079F0E9FADBF84A
:101F4000085035B128462D680C2179F0E1FA002DB2
:101F5000F8D1DBF804200021DBF80000920096F0B5
:101F600011FDDBE900010023CBE902337EAB98428F
:101F700002D0890079F0CCFA739D35B128462D68DE
:101F80000C2179F0C5FA002DF8D1729A00217198D0
:101F9000920096F0F7FC00237198CDE9733377AB8C
:101FA0009842729902D0890079F0B2FA6C9D35B1ED
:101FB00028462D680C2179F0ABFA002DF8D16B9AE8
:101FC00000216A98920096F0DDFCDDE96A010023A9
:101FD000CDE96C3370AB984202D0890079F098FA61
:101FE000659D35B128462D680C2179F091FA002DB8
:101FF000F8D1649A00216398920096F0C3FC002304
:102000006398CDE9653369AB9842649902D0890041
:1020100079F07EFA5E9D35B128462D680C2179F065
:1020200077FA002DF8D15D9A00215C98920096F025
:10203000A9FCDDE95C010023CDE95E3362AB984287
:1020400002D0890079F064FA7D6A35B128462D689E
:102050000C2179F05DFA002DF8D13A6A0021F86977
:10206000920096F08FFCD7E907010023C7E90933F6
:102070005BAB984202D0890079F04AFABD6835B16D
:1020800028462D680C2179F043FA002DF8D17A68A2
:1020900000213868920096F075FCD7E90001002312
:1020A000C7E9023354AB984202D0890079F030FA84
:1020B000499D35B128462D680C2179F029FA002D6B
:1020C000F8D1489A00214798920096F05BFC0023D3
:1020D0004798CDE949334DAB9842489902D08900E1
:1020E00079F016FA429D35B128462D680C2179F019
:1020F0000FFA002DF8D1419A00214098920096F0F5
:1021000041FCDDE940010023CDE9423346AB984272
:1021100002D0890079F0FCF93B9D35B128462D6845
:102120000C2179F0F5F9002DF8D13A9A002139986F
:10213000920096F027FC00233998CDE93B333FAB62
:1021400098423A9902D0890079F0E2F9349D35B18C
:1021500028462D680C2179F0DBF9002DF8D1339A4F
:1021600000213298920096F00DFCDDE93201002347
:10217000CDE9343338AB984202D0890079F0C8F900
:1021800001222280032222840422002322860221AB
:102190000522C6E90C33C6E90E33C6E91033C4E99B
:1021A0000233C4E90633C4E90A3386F84830C6F876
:1021B0004A30C6F84E30C6F85230C6F85630C6F827
:1021C0005A30C6F85E30C6F86230C6F86630C6F8D7
:1021D0006A30C6F86E30C6F8723086F876306360C2
:1021E0006361636221826363A4F840200622A4F83D
:1021F00050200722A4F860200822A4F870200922A9
:10220000A4F880200A22A4F890200B22A4F8A02091
:102210000C221F46C4E90E33C4E91233C4E9163355
:10222000C4E91A33C4E91E33C4E92233C4E92633AE
:10223000C4E92A336364636563666367C4F8843002
:10224000C4F89430C4F8A430C4F8B430A4F8B02072
:10225000C4E92E33C4E93233C4E93633C4E93A332E
:10226000C4E93E33C4F8C430C4F8D430C4F8E43010
:10227000C4F8F43086F87C30C6F88030C6F88C306C
:102280000D23A4F8C0300E23A4F8D0300F23A4F8F7
:10229000E0301023B94606F17C0AC6E921AA0DF503
:1022A0002678A4F8F03038F810BC002F5AD0D6F8B1
:1022B00088502B8A5B4555D255456ED02B8A5B459D
:1022C00094BF002301230593202079F019F958E9E0
:1022D0000312521A0746C0E90599A0F810B0C0F8D9
:1022E0001C905DD0384B9A425ED8104607910692FA
:1022F00079F006F9069AC7E9050000EB020B042AFB
:102300000799C7F81CB05BDD96F0A8FE3946C7F800
:1023100018B02A465346059893F050FDD6F88C70B5
:102320000137C6F88C7008F11008E6AB4345BAD106
:10233000DF98DEAD58B1E968091A79F0E9F8AC42E6
:10234000A5F1100307D01D4668680028F3D1AC4200
:10235000A5F11003F7D130460DF26C4DBDEC028BA8
:10236000BDE8F08FD6F8805015B32A8A934505D37F
:10237000EB6873B11D462A8A9345F9D2AB68002BEE
:10238000F8D1D6F88430AB4296D0284693F0FCFCC6
:10239000028A5A45C7D2554590D10123059393E748
:1023A00093464261C261B1E7002A07DA93F0CCFD9F
:1023B000D6F8843055465345E7D1EEE793F0B4FDA7
:1023C0000A680260A2E700BFFCFFFF7F2DE9F0472B
:1023D000074615461C468946182079F091F807F102
:1023E000040A2D682368CA450646C0E9045338D05C
:1023F000D9F810304C469D4222D2D7F80C90A14516
:1024000057D0204693F0C0FC03699D424FD8D7F8BF
:102410000880B8F1000F00F08F80D8F810309D428E
:1024200008D2D8F80830002B77D09846D8F810306A
:102430009D42F6D3D8F80C20002A67D09046ECE7EE
:1024400029D93B694B4545D0484693F071FC036957
:102450009D424CD2D9F80C30002B3DD004460120CF
:1024600028E07B6993BBD7F80880B8F1000F5FD0F4
:10247000D8F81020954215D2D8F80830ABB9FB68CF
:10248000434553D0404693F07FFC44468046026962
:1024900095421FD844463046182179F039F8204635
:1024A000BDE8F087D8F80C30FBB19846E0E7C36888
:1024B0008BB30120224634465346314693F07EFCCE
:1024C0007B69204601337B61BDE8F0873C69236965
:1024D0009D42C8D9A245ECD0206985422CBF00207E
:1024E0000120E7E7D8F80C3073B94446D0E7D7F8B5
:1024F0000880B8F1000F23D0D8F810209542F1D20F
:10250000D8F80830002BBAD09846F5E744469D42EB
:10251000E0D84446BFE70446DCE7C1450AD0404660
:1025200093F032FC444603698046F0E74446D1E725
:10253000C846A4E74C46CDE7CA4506D0D046EEE7EC
:10254000FB689A4501D0D0469CE754460120B1E78C
:102550002DE9F04F0446DFF8649385B0D9E8AF3F2A
:1025600013F0010500F0CE83DFF81CA3C64822F06B
:1025700077FDC64DD5E8AF3FDF0740F1A783C448DC
:1025800022F0CEFBD5E8AF3FDE0740F18383C048A1
:1025900022F040FCD5E8AF3FD80740F10984BC48A1
:1025A00022F0F2FB4FF44A7078F0AAFF074600F0E1
:1025B000ABFF4FF44A7078F0A3FF064600F0A4FF8B
:1025C000D9E8AF3F13F0010500F0E4833946AE4887
:1025D00022F0BAFED9E8AF3F13F0010500F0CC833A
:1025E0003146A94822F0B4FED9E8AF3F13F0010507
:1025F00000F0B483A44822F053FE4FF480736422A9
:10260000384687F8BF20A7F8BD3000F0FBFFD9E8B7
:10261000AF3F13F0010500F09383DAF864302046F1
:10262000C7F88C31FEF710FA212075F089F92120C6
:102630004FF0000343EC44000022012175F02EF915
:10264000D9E8AF3F13F0010500F06C830122D4F804
:10265000203404F21C450092002B00F09E84284692
:1026600019460A69002A40F05782C9680029F8D142
:1026700001468D4203D00A69012A40F2548204F5D2
:102680008368844B6A464046FFF7A0FE022300930E
:10269000D4F820346E46002B00F0A7831A46284653
:1026A0001969012900F26682DB68002BF8D1034624
:1026B000AB4200F0C7821969022900F2C3820423E9
:1026C0000093134628461169032900F25A82D26802
:1026D000002AF8D10246AA4200F06C82116904294E
:1026E00000F26882082200921A46284619690729D2
:1026F00000F23282DB68002BF8D10346AB4200F0D7
:1027000047821969082900F2438210231146009379
:10271000284613690F2B00F21882D268002AF8D1DC
:102720000246AA4200F058821369102B00F254822C
:10273000402300930B4628460A693F2A00F2FE8197
:10274000C9680029F8D10146A94200F045840A6908
:10275000402A40F29B826E4604F583684E4B324617
:102760004046FFF733FE20230093D4F82034002B9B
:1027700000F01184194628461A691F2A00F2D781F1
:10278000DB68002BF8D10346AB4200F06D821A697A
:10279000202A00F26982802300932A460B697F2B4E
:1027A00000F2E181C9680029F8D111468D4202D0BA
:1027B0000B69802B07D96E4604F583683246404684
:1027C000364BFFF703FE87F043F90820002578F029
:1027D00097FE334B04F54A76C0E900350146304692
:1027E00002F0C2FE082078F08BFE2E4B0146C0E9B5
:1027F0000035304602F0B8FEB02078F081FE804609
:10280000B022294696F0BEF8274B4146C8F8003062
:10281000304602F043FEE82078F072FE8046E8225F
:10282000294696F0AFF8214B4146C8F800303046B3
:1028300002F034FE0C2078F063FE1D4B0146C0E927
:1028400000358560304602F029FE202078F058FEE1
:1028500080462022294696F095F8164B4146C8F846
:102860000030304602F01AFE0C2078F049FE124B80
:102870000146C0E900358560304602F00FFE282091
:1028800078F03EFE80461BE0642D0120745200204B
:10289000B02B0120D82D0120002E0120102E012068
:1028A000E48C0A10809B0A10A8890A10688B0A1011
:1028B000888A0A10748C0A10F88A0A107C52002048
:1028C0002822294696F05EF8CC4B4146C8F80030E5
:1028D000304602F0E3FD342078F012FE80463422C8
:1028E000294696F04FF8C64B4146C8F83030C54BE4
:1028F0003046C8F8003002F0D1FD902078F000FE9C
:1029000080469022294696F03DF84046FFF7E2F8CF
:102910004146304602F0C2FD282078F0F1FD8046A5
:102920002822294696F02EF8B74B4146C8F80030C9
:10293000304602F0B3FD1C2078F0E2FDB34B0146B7
:10294000C0E90035C0E90255C0E90455856130464B
:1029500002F0A4FD542078F0D3FD8046542229468D
:1029600096F010F8AA4B4146C8F80030304602F005
:1029700095FD802078F0C4FD80462946802296F09F
:1029800001F84046A34B2946202240F8083B95F029
:10299000F9FF0123DFF8A4E208F1380C88F81430BD
:1029A00088F82430BEE80F00ACE80F00BEE80F0046
:1029B000ACE80F00BEE80F00ACE80F009EE80F0087
:1029C0008CE80F004146304602F068FD382078F070
:1029D00097FD80463822294695F0D4FF8E4B41461C
:1029E000C8F80030434603F80C5FC8E905333046A9
:1029F00002F054FD202078F083FD804620222946F5
:102A000095F0C0FF854B4146C8F80030304602F0D3
:102A100045FD41F2580078F073FD8046294641F2A9
:102A2000580295F0AFFF40467D4B294640F8083BE1
:102A30004FF4006295F0A6FF29464FF4006208F6B5
:102A40000E0095F09FFF4FF02C0C41F230012D202D
:102A50004FF4E13E4FF0FF3208F58053DFF8E0B16C
:102A6000C3E909C008EB0100C3E905BEC3E90722B9
:102A700040F8042C48F8012030469D64414602F09D
:102A80000DFD282078F03CFD80462822294695F04F
:102A900079FF644B4146C8F80030304602F0FEFC36
:102AA000782078F02DFD80467822294695F06AFF3F
:102AB0005D4B4146C8F80030304602F0EFFC58202C
:102AC00078F01EFD29460546582295F05BFF574BCE
:102AD00029462B60304602F0E1FCD7F890312046C1
:102AE0005D78FEF75FF80138122800F27F82DFE898
:102AF00010F0CC0179027E01F401F201F001EE0147
:102B0000EC01EA01E801E601E401E201E001DE0195
:102B1000DC01DA01D801D6018A68002A3FF4A9ADA8
:102B2000084611469DE5022200921A46B7E59A68CA
:102B3000002A3FF429AE184613461DE68A68002A8B
:102B40003FF402AE08461146F6E59368002B3FF4C9
:102B5000E8AD10461A46DCE5996800293FF4CEAD91
:102B600018460B46C2E58B68002B3FF41FAE0A46A1
:102B7000194613E6996800293FF49AAD18460B46AA
:102B80008EE5916800293FF4A6AD10460A469AE505
:102B90006E4604F5836819463246254B4046FFF7DA
:102BA00015FC1023D4F820240093002A00F0FA81A9
:102BB0001146ADE56E4604F5836811461D4B32465D
:102BC0004046FFF703FC08230093D4F82034002B81
:102BD00000F0EA811A4688E56E4604F583681146DE
:102BE000154B32464046FFF7F1FB4023D4F8201442
:102BF0000093002900F0F3810B469CE5E08D0A105C
:102C000000000442109B0A10309A0A10C8980A105B
:102C1000A09A0A10F4960A106C8E0A10889C0A106A
:102C2000F4930A1078970A1058980A10C0990A105D
:102C3000F02D0120E82D0120F82D0120989F09108A
:102C4000000007406E4604F5836819463246B54BCE
:102C50004046FFF7BBFB0423D4F820240093002A4E
:102C600000F09E8113462DE56E4604F583681946F3
:102C70003246AD4B4046FFF7A9FB8023D4F8201421
:102C8000009300297FF489AD294697E52022194653
:102C9000009270E5A54892F04DFF00283FF477AC14
:102CA000A3488DF05FFAA3488DF05CFAA2488DF03E
:102CB000CBFBA2488DF0C8FBA1488DF00DFDA148CB
:102CC00095F068F8994892F051FF60E4284692F038
:102CD00031FF00283FF453AC95488DF043FA9548F6
:102CE0008DF040FA94488DF0AFFB94488DF0ACFB2A
:102CF00093488DF0F1FC934895F04CF8284692F0FB
:102D000035FF3CE4484692F015FFDFF848A2002862
:102D10003FF42CAC4846CAE901558AF8005092F0BD
:102D200025FF23E4884892F005FF00283FF48EAC8D
:102D30008548CAE901558AF8005092F017FF85E4EA
:102D4000814892F0F7FE00283FF467AC7E48CAE95C
:102D500001558AF8005092F009FF5EE47A4892F03B
:102D6000E9FE00283FF446AC7748CAE901558AF8E5
:102D7000005092F0FBFE3DE4734892F0DBFE002829
:102D80003FF42EAC7048CAE901558AF8005092F021
:102D9000EDFE25E46C4892F0CDFE00283FF416AC21
:102DA0006948CAE901558AF8005092F0DFFE0DE447
:102DB0005E4892F0BFFE00283FF4F1AB5C488DF016
:102DC000D1F95C488DF0CEF95B488DF03DFB5B4856
:102DD0008DF03AFB5A488DF07FFC5A4894F0DAFFA8
:102DE000524892F0C3FEFFF7DABB2B462DE70125D0
:102DF000564BD3E8AF3FDB0772D5294654481FF046
:102E0000D5F8D7F890315A78AA420AD05D70D9E83F
:102E1000AF3F13F0010500F0D18001214D4822F0B1
:102E200033F94D4FD7E8AF3F13F0010569D00023C8
:102E30004A494B4A4B48CDE902216A460C2101938D
:102E400000941FF085FD029B6E461BB1032269466C
:102E500068469847D7E8AF3F13F0010500F08A8035
:102E60000023414A414803920290324601213D48E5
:102E7000019300941FF06CFD029B1BB103223146AD
:102E80003046984705B0BDE8F08F304BD3E8AF3FF0
:102E9000DA0724D5FF212E481FF088F8C1E70F2557
:102EA000A6E70C25A4E70B25A2E70A25A0E709253C
:102EB0009EE708259CE706259AE7072598E705255C
:102EC00096E7102594E70D2592E7042590E7022563
:102ED0008EE70E258CE703258AE7002588E7FF2586
:102EE0001A4892F027FE002860D1294618481FF0A2
:102EF0005DF8FF2D85D1184FD7E8AF3F13F00105DE
:102F000095D1384692F016FE002890D0154B1848FF
:102F1000C3E900559D6094F03DFF384692F026FECF
:102F200085E700BFE02D0120082E0120745200200B
:102F3000B02B0120D02B0120F02B01202C2C0120C4
:102F4000682C0120610300107C5200206852002090
:102F5000902B0120642D01206452002025030010D5
:102F60001D050010702B01204D03001045050010B9
:102F700001040010214892F0DDFD00283FF470AFFD
:102F80001F4B2048C3E900559D6094F003FF1B4888
:102F900092F0ECFD64E72B4669E62946FFF76FBB2C
:102FA0002A460AE62A461AE62B46F4E50022164B84
:102FB00016481A601A7192F0D9FD96E7144892F0FB
:102FC000B9FD00283FF429AF1148CAE901558AF834
:102FD000005092F0CBFD20E76E4604F58368294649
:102FE000FFF7BCBB0021084676F078F8074BD3E822
:102FF000AF3FD9073FF579AF72E700BF64520020B9
:10300000702B012001040010902B01206852002039
:103010007C5200201D4AF8B51368591C11603BB959
:103020004FF0FF311A4AC2E90133C2E9033311609C
:10303000184A1368591C116033B1174B174AD2E96B
:103040000001C3E90001F8BD154C4020C4E900337C
:10305000A36078F055FA8646124D00F1400605F15E
:1030600040072060A660AC460EF1100EBCE80F00D1
:10307000BC4505F110054EF8100C4EF80C1C4EF82E
:10308000082C4EF8043CEED16660D6E75C52002076
:103090004452002058520020804D0020B0C20A1037
:1030A0000C9101206C9C0910034B186818B19968A9
:1030B000091A78F02DBA70479C2B01200022C0E934
:1030C0000022C0E902220274704700BF2DE9F041DE
:1030D0000746A34DD5E8AF3F13F0010400F010817F
:1030E000A04E3068386098B103685B6898473868CC
:1030F00003685B6B9847044650B19B4ED6E8AF3FE0
:1031000013F0010500F019812146984822F06AFC6D
:103110008C2078F0F5F9054600244FF001088C2248
:10312000002195F02FFC924B3E1D2B6005F12003F2
:10313000AB6105F17C036B67294685F8108085F843
:10314000204085F87C40304602F0A8F94FF4E46056
:1031500078F0D6F94FF4E4622146054695F012FC6A
:103160000A23AB60834B05F130002B608CF0EEFB43
:10317000C5E97444C5E9764405F5F0706DF0A4F92D
:1031800005F24C53C5F85435C5F85835294685F82D
:103190004C45C5F85045C5F85C45304602F07EF90F
:1031A0004FF4527078F0ACF9054621464FF4527254
:1031B00095F0E8FB2846704B40F8083B8CF0C6FBC6
:1031C0004FF4C872214605F5D47095F0DBFB294613
:1031D000C5E9CF44A5F8384385F84483304602F06A
:1031E0005DF9202078F08CF90546644BDFF8A48166
:1031F000C0E90344C0E905440360D8E8AF3F13F0D9
:10320000010400F08A80DFF8908198F8253A294679
:103210002B72304602F042F9102078F071F9002448
:103220000146574BC1E90144CC600B60304602F0C7
:1032300035F91C2078F064F90146524BC1E901448C
:103240000B60C1E90344C1E90544304602F026F9A8
:10325000302078F055F905463022214695F092FB52
:10326000494B29462B60304602F018F9D02078F0FF
:1032700047F92146D022044695F084FB4FF6FF73B0
:1032800001252381A3832386A4F84430A4F8583071
:10329000A4F86C30A4F88030A4F89430A4F8A830D6
:1032A000A4F8BC304FF6F673384A30462146226007
:1032B000A572A57784F8325084F8465084F85A50A5
:1032C00084F86E5084F8825084F8965084F8AA509E
:1032D00084F8BE50A3812384A386A4F84830A4F8C0
:1032E0005C30A4F87030A4F88430A4F89830A4F8C6
:1032F000AC30A4F8C03002F0D1F83D74BDE8F081E4
:10330000284692F017FC174E00283FF4EAAE2846F4
:103310003460347192F02AFCE3E6404692F00AFCF5
:1033200000283FF470AF4046DFF86C80C8E90144E4
:1033300088F8004092F01AFC67E7304692F0FAFBFA
:1033400000283FF4E1AE094B1148C3E90055C3E939
:1033500002551D6194F01EFD304692F007FCD3E645
:1033600068520020902B0120705200209C2B0120DD
:10337000C4900A1074940A1078930A100C960A10DC
:10338000188A0A10048C0A10E8970A1084960A100A
:10339000A93000107C520020642D0120054608B59C
:1033A000041D204602F088F9204602F095F92868AD
:1033B0000028F6D00368DB689847F2E71A4AF8B5A8
:1033C0001368591C11603BB94FF0FF31174AC2E92D
:1033D0000133C2E903331160154A1368591C1160A7
:1033E00003B1F8BD134C4020C4E90033A36078F06A
:1033F00087F88646104D00F1400605F14007206031
:10340000A660AC460EF1100EBCE80F00BC4505F1FD
:1034100010054EF8100C4EF80C1C4EF8082C4EF807
:10342000043CEED16660F8BD5C520020445200209E
:10343000585200200C910120D89F0910704700BFFE
:10344000007A7047704700BFC079704710B50446D6
:103450000C2178F05DF8204610BD00BF10B5044681
:10346000082178F055F8204610BD00BF2DE9F04145
:10347000DFF86880D8E90067BE4218D0D6E9014578
:10348000AC4209D0A368DBB12146204603221034A8
:103490009847A542F6D17568BDB1F1682846491B29
:1034A000103678F035F8B742E8D1D8F8007097B107
:1034B000D8F808103846C91BBDE8F04178F028B8A4
:1034C0001034A542DED17568E6E71036B742D5D193
:1034D000D8F80070EBE7BDE8F08100BF702B012049
:1034E00008B575F02BFB29B14FF47A72002396F0E2
:1034F0007FFA08BD024AA2FB0020800908BD00BF78
:10350000D34D621075F01ABBF8B547F6FF71002372
:103510006FF080250446344A344F354EC0E90033FD
:10352000C0E90237C0E90451C0E90A33C0E90D51CE
:10353000C0E91333C0E91533C0E91733C0E91933C3
:103540008261C26102624262C26302644264826456
:103550000763C366036743678367C0E92033C0E935
:103560002233C0E92433C0E92633C0E92833C0E957
:103570002A33C0E92C33C0E92E33C367C0F88C313D
:10358000D6E8AF3F13F0010514D01A4FC4F890717C
:10359000D6E8AF3F13F0010519D000231649174AAA
:1035A0002046D2E90067C4F89811C4E9C86784F8D6
:1035B0001C33F8BD304692F0BDFA0028E5D0104B20
:1035C0003046C3E901551D7092F0D0FADDE7084896
:1035D00092F0B0FA0028E0D0054847E9135507F803
:1035E000505C92F0C3FAD8E700FEFF460000FF7F70
:1035F0007C520020B42D0120902E0120B0C20A1070
:10360000642D01202DE9F04F8346044D99B0D5E893
:10361000AF2F12F0010400F06C8401E07C52002016
:10362000082077F06DFF002502464FF00109CBF826
:10363000C020C2E90059082077F062FF4FF002086D
:1036400002460820C2E90058CBF8C42077F058FFA2
:10365000042702460820C2E90057CBF8C82077F0BB
:103660004FFF082402462046C2E90054CBF8CC2084
:1036700077F046FF02462046C2E90059CBF8D02039
:1036800077F03EFF02462046C2E90058CBF8D4202E
:1036900077F036FF02462046C2E90057CBF8D82023
:1036A00077F02EFF02462046C2E90054CBF8DC201A
:1036B00077F026FF1022CBF8E0004260056020463C
:1036C00077F01EFF2022CBF8E40042600560204620
:1036D00077F016FF402602462046C2E90056CBF896
:1036E000E82077F00DFF8022CBF8EC004260056007
:1036F000204677F005FF4FF48072CBF8F00042606F
:103700000560204677F0FCFE4FF40072CBF8F40021
:1037100042600560204677F0F3FE4FF48062CBF8FC
:10372000F80042600560204677F0EAFE4FF4006240
:10373000CBF8FC0042600560204677F0E1FE4FF4D4
:103740008052CBF8000142600560204677F0D8FE39
:103750004FF40052CBF8040142600560204677F038
:10376000CFFE4FF48042CBF808014260056020464E
:1037700077F0C6FE4FF4004A02462046C2E9005ADE
:10378000CBF80C2177F0BCFE4FF48012CBF810017F
:1037900042600560204677F0B3FE4FF40012CBF88C
:1037A000140142600560204677F0AAFE4FF48002C3
:1037B000CBF8180142600560204677F0A1FE4FF477
:1037C0000002CBF81C0142600560204677F098FEAD
:1037D0004FF08072CBF8200142600560204677F000
:1037E0008FFE4FF00072CBF8240142600560204646
:1037F00077F086FE4FF08062CBF8280142600560CA
:10380000204677F07DFE4FF00062CBF82C0142603D
:103810000560204677F074FE4FF08052CBF83001FF
:1038200042600560204677F06BFE4FF00052CBF807
:10383000340142600560204677F062FE4FF080421E
:10384000CBF8380142600560204677F059FE4FF012
:103850000042CBF83C0142600560204677F050FE04
:10386000C0F804A0CBF840010560204677F048FE80
:103870001822CBF8440142600560204677F040FEF4
:103880001922CBF8480142600560204677F038FEE7
:103890001A22CBF84C0142600560204677F030FEDA
:1038A000C0F80490CBF850010560204677F028FE60
:1038B000C0F80480CBF854010560204677F020FE64
:1038C0004760CBF858010560204677F019FE0246A4
:1038D0002046C2E90054CBF85C2177F011FE3B2270
:1038E000CBF8600142600560204677F009FE3C227B
:1038F000CBF8640142600560204677F001FE3D226E
:10390000CBF8680142600560204677F0F9FD3E2261
:10391000CBF86C0142600560204677F0F1FD3F2254
:10392000CBF8700142600560204677F0E9FD024661
:103930002046C2E90056CBF8742177F0E1FD412121
:1039400002462046C2E90051CBF8782177F0D8FD35
:10395000422102462046C2E90051CBF87C2177F093
:10396000CFFD472102462046C2E90051CBF8802115
:1039700077F0C6FD46222946C0E90052AA4CCBF892
:103980008401B4F90030013B462B4FD8DFE813F037
:10399000AE02AB02A802A502A2029F029C029902FB
:1039A0009602930290028D028A02870284028102AB
:1039B0007E027B0278024E004E004E004E007502E1
:1039C00072026F024E004E004E004E004E004E003E
:1039D0004E004E004E004E004E004E004E0087013D
:1039E000840181017E017B017801750172016F0103
:1039F0006C0169016601630160015D015A015701B3
:103A0000540151014E0149014601430140013D016C
:103A10003A0137014E004E004E002B014700DBF803
:103A2000805101222B688A4013432B6001313029D9
:103A300004F11404A5D1DBF898210BF5F274131DE1
:103A400001941C460BF5FE710BF505700291039075
:103A500002F190010BF50B700491059002F1AC019D
:103A60000BF511700691079002F1C8010BF5177064
:103A70000891099002F1E4010BF51D700A910B9079
:103A800002F580710BF523700C910D9002F58E718B
:103A90000BF529700E910F9002F59C710BF52F70AC
:103AA0001091119002F5AA710BF5357012911390D7
:103AB00002F5B8710BF53B70149115900BF541713F
:103AC0000BF5CE7A02F5C6701791169002F1200917
:103AD00002F13C0702F1580502F1740E02F5D47CA4
:103AE0000FCCAAE80F0094E803000BF5DA788AE817
:103AF0000300B9E80F00A8E80F0099E803000BF5F0
:103B0000E67688E803000FCF0FC697E8030086E843
:103B100003000FCD019C0FC495E80300C4E9000128
:103B2000BEE80F00029C049D0FC49EE8030084E8D9
:103B300003000FCD039C0FC495E80300069DC4E964
:103B400000010FCD059C0FC495E80300089DC4E952
:103B500000010FCD079C0FC495E80300C4E90001E4
:103B60000A9D099C0FCD0FC495E803000C9DC4E984
:103B700000010FCD0B9C0FC495E803000E9DC4E916
:103B800000010FCD0D9C0FC495E80300109DC4E902
:103B900000010FCD0F9C0FC495E80300129DC4E9EE
:103BA00000010FCD119C0FC495E80300149DC4E9DA
:103BB00000010FCD139C0FC495E80300169DC4E9C6
:103BC00000010FCD159C0FC495E80300C4E9000166
:103BD000BCE80F00179C0FC49CE8030084E80300B6
:103BE00019B0BDE8F08F012203688A400131134308
:103BF0003029036004F114047FF4C3AE1BE7DBF843
:103C00007C510EE7DBF878510BE7DBF8745108E7DD
:103C1000DBF8705105E7DBF86C5102E7DBF868511F
:103C2000FFE6DBF86451FCE6C67F0120DBF860515B
:103C3000F7E6DBF85C51F4E6DBF85851F1E6DBF827
:103C40005451EEE6DBF85051EBE6DBF83C51E8E688
:103C5000DBF83851E5E6DBF83451E2E6DBF83051C9
:103C6000DFE6DBF82C51DCE6DBF82851D9E6DBF89F
:103C70002451D6E6DBF82051D3E6DBF81C51D0E620
:103C8000DBF81851CDE6DBF81451CAE6DBF8105129
:103C9000C7E6DBF80C51C4E6DBF80851C1E6DBF8F7
:103CA000C050D4F806206E68D4F80E30324204D0EA
:103CB00001272E688F403E432E60DBF8C4506E68AB
:103CC000324204D001272E688F403E432E60DBF83D
:103CD000C8506E68324204D001272E688F403E43A0
:103CE0002E60DBF8CC506E68324204D001272E687B
:103CF0008F403E432E60DBF8D0506E68334204D0D4
:103D000001272E688F403E432E60DBF8D4506E684A
:103D1000334204D001272E688F403E432E60DBF8EB
:103D2000D8506E68334204D001272E688F403E433E
:103D30002E60DBF8DC506E68334204D001272E6819
:103D40008F403E432E60DBF8E0506E68334204D073
:103D500001272E688F403E432E60DBF8E4506E68EA
:103D6000334204D001272E688F403E432E60DBF89B
:103D7000E8506E68334204D001272E688F403E43DE
:103D80002E60DBF8EC506E68334204D001272E68B9
:103D90008F403E432E60DBF8F0506E68334204D013
:103DA00001272E688F403E432E60DBF8F4506E688A
:103DB000334204D001272E688F403E432E60DBF84B
:103DC000F8506E68334204D001272E688F403E437E
:103DD0002E60DBF8FC506E68334204D001272E6859
:103DE0008F403E432E60DBF800516E68334204D0B2
:103DF00001272E688F403E432E60DBF804516E6829
:103E0000334204D001262B688E4033432B60DBF80D
:103E100050315D682A4204D001261D688E4035432A
:103E20001D60DBF854315D682A4204D001261D680C
:103E30008E4035431D60DBF858315D682A4204D05E
:103E400001261D688E4035431D60DBF85C315D68DE
:103E50002A423FF4EBAD01251A688D4001312A4317
:103E600030291A6004F114047FF48BADE3E5DBF82C
:103E70004C51D6E5DBF84851D3E5DBF84451D0E5A9
:103E8000DBF84051CDE5DBF8FC50CAE5DBF8F85033
:103E9000C7E5DBF80451C4E5DBF80051C1E5DBF808
:103EA000F450BEE5DBF8F050BBE5DBF8EC50B8E5CC
:103EB000DBF8E850B5E5DBF8E450B2E5DBF8E050BC
:103EC000AFE5DBF8DC50ACE5DBF8D850A9E5DBF872
:103ED000D450A6E5DBF8D050A3E5DBF8CC50A0E544
:103EE000DBF8C8509DE5DBF8C4509AE5DBF8C0501C
:103EF00097E5284691F01EFE00283FF491AB044A56
:103F00002846C2E90144147091F030FEFFF788BBE7
:103F1000642D012010B50446D0F8C00010B108216E
:103F200077F0F6FAD4F8C40010B1082177F0F0FA6F
:103F3000D4F8C80010B1082177F0EAFAD4F8CC0020
:103F400010B1082177F0E4FAD4F8D00010B10821BC
:103F500077F0DEFAD4F8D40010B1082177F0D8FA5F
:103F6000D4F8D80010B1082177F0D2FAD4F8DC00E8
:103F700010B1082177F0CCFAD4F8E00010B1082194
:103F800077F0C6FAD4F8E40010B1082177F0C0FA4F
:103F9000D4F8E80010B1082177F0BAFAD4F8EC00B0
:103FA00010B1082177F0B4FAD4F8F00010B108216C
:103FB00077F0AEFAD4F8F40010B1082177F0A8FA3F
:103FC000D4F8F80010B1082177F0A2FAD4F8FC0078
:103FD00010B1082177F09CFAD4F8000110B1082143
:103FE00077F096FAD4F8040110B1082177F090FA2E
:103FF000D4F8080110B1082177F08AFAD4F80C013E
:1040000010B1082177F084FAD4F8100110B108211A
:1040100077F07EFAD4F8140110B1082177F078FA1D
:10402000D4F8180110B1082177F072FAD4F81C0105
:1040300010B1082177F06CFAD4F8200110B10821F2
:1040400077F066FAD4F8240110B1082177F060FA0D
:10405000D4F8280110B1082177F05AFAD4F82C01CD
:1040600010B1082177F054FAD4F8300110B10821CA
:1040700077F04EFAD4F8340110B1082177F048FAFD
:10408000D4F8380110B1082177F042FAD4F83C0195
:1040900010B1082177F03CFAD4F8400110B10821A2
:1040A00077F036FAD4F8440110B1082177F030FAED
:1040B000D4F8480110B1082177F02AFAD4F84C015D
:1040C00010B1082177F024FAD4F8500110B108217A
:1040D00077F01EFAD4F8540110B1082177F018FADD
:1040E000D4F8580110B1082177F012FAD4F85C0125
:1040F00010B1082177F00CFAD4F8600110B1082152
:1041000077F006FAD4F8640110B1082177F000FACC
:10411000D4F8680110B1082177F0FAF9D4F86C01ED
:1041200010B1082177F0F4F9D4F8700110B108212A
:1041300077F0EEF9D4F8740110B1082177F0E8F9BE
:10414000D4F8780110B1082177F0E2F9D4F87C01B5
:1041500010B1082177F0DCF9D4F8800110B1082102
:1041600077F0D6F9D4F8840110B1082177F0D0F9AE
:104170002046BDE81040FFF745BA00BF70B5D0F843
:1041800090210446D3790079ABB18446D4F8C83085
:104190005D68D4F8CC30E9B25B681CEA050FDEB28A
:1041A00041EA060E03EA000320EA0E0018BF30437E
:1041B000002B47D12071537AB3B10146D4F8C030F7
:1041C0005E68D4F8C430F5B25B6831425FFA83FCB4
:1041D00003EA000345EA0C0021EA0000C0B218BF60
:1041E0004CEA00005BBB2071D17B94F89531994279
:1041F00003D001F059F8D4F8902194F8943100F0EC
:104200000F016071C0F3071521710BB929432171AA
:104210005079042819D001F05BF894F8943120719A
:10422000012B22D0022B00D070BD00F033FF0346DB
:104230002079638200F06CFF2571A08270BD054378
:10424000E8B2D0E70143C8B2B4E75278072AE2D80F
:104250009623D34013F0010F18BF012001F038F866
:1042600094F894312071012BDCD100F013FF034648
:104270002079E38100F04CFF2571208270BD00BFE2
:104280002DE9F0410446104ED6E8AF3F13F001058A
:1042900000F0AC810D4821F059F80D4FD0F888514D
:1042A000D7E8AF3F13F0010600F09081DFF82480DB
:1042B000D8F80030002B00F08681D7E8AF3F13F02C
:1042C000010600F0A18107E07C520020642D01204E
:1042D00068520020902B0120D8F8000003681B6B67
:1042E0009847D4F8402113682B4018BF9388D4F81E
:1042F000C020A38113682B4018BF1379D4F8C420C1
:1043000011680D421CBF12791343D4F8C8201168FC
:104310000D421CBF12791343D4F8CC2011680D4212
:104320001CBF12791343D4F8502111680D4203D0F9
:10433000526843EA0213DBB2D4F8542111680D42EB
:1043400003D0526843EA0213DBB2D4F85821116853
:104350000D4203D0526843EA0213DBB2D4F85C2169
:1043600011680D4203D0526843EA0213DBB2D4F85D
:10437000D020237113682B4018BF5368D4F8D42081
:1043800011680D421CBF52681343D4F8D82011683D
:104390000D421CBF52681343D4F8DC2011680D4253
:1043A0001CBF52681343D4F8E02011680D421CBFB3
:1043B00052681343D4F8E42011680D421CBF5268C0
:1043C0001343D4F8E82011680D421CBF5268134310
:1043D000D4F8EC2011680D421CBF52681343D4F886
:1043E000F02011680D421CBF52681343D4F8F4202A
:1043F00011680D421CBF52681343D4F8F8201168AD
:104400000D421CBF52681343D4F8FC2011680D42C2
:104410001CBF52681343D4F8002111680D421CBF21
:1044200052681343D4F8042111680D421CBF52682E
:104430001343D4F8082111680D421CBF526813437E
:10444000D4F80C2111680D421CBF52681343D4F8F4
:10445000102111680D421CBF52681343D4F8142177
:1044600011680D421CBF52681343D4F8182111681B
:104470000D421CBF52681343D4F81C2111680D4231
:104480001CBF52681343D4F8202111680D421CBF91
:1044900052681343D4F8242111680D421CBF52689E
:1044A0001343D4F8282111680D421CBF52681343EE
:1044B000D4F82C2111680D421CBF52681343D4F864
:1044C000302111680D421CBF52681343D4F83421C7
:1044D00011680D421CBF52681343D4F8382111688B
:1044E0000D421CBF52681343D4F83C2111680D42A1
:1044F0001CBF52681343D4F84421A36013681D42C3
:1045000006D1D4F848311B681D4255D0012200E085
:104510000022D4F8803184F894211B68D4F86021FB
:104520002B40003B18BF0123126884F895311542D7
:1045300036D1D4F864214FF6FF731268154208BFD4
:104540000346D4F86821E38113681D4232D1D4F8C0
:104550006C214FF6FF731268154208BF0346D4F86A
:104560007021238213681D4222D1D4F874214FF6A2
:10457000FF731268154208BF0346D4F8782163829E
:1045800013681D420ED14FF6FF73D4F87C211268D8
:10459000154218BF18460023E382A082BDE8F081CF
:1045A0000023CEE700230020E382A082BDE8F08153
:1045B0000023E2E70023D2E7D4F84C311B681D4208
:1045C00030D00222A5E747F6FF708AE6384691F020
:1045D000B1FADFF8608000283FF46AAE3846C8F8C8
:1045E000006088F8046091F0C1FA61E6304691F00D
:1045F000A1FA00283FF44EAE0C4B3046C3E90155FA
:104600001D7091F0B3FA45E6094891F093FA00283D
:104610003FF462AE0648C8F8006088F8046091F084
:10462000A5FA59E6D4F89031DA7872E7642D0120C2
:1046300068520020902B01204B1E2DE9F0410D46C1
:104640000446542B7BD8DFE813F00302CA010D02A5
:1046500083007E001702F901F202E6020603FC0263
:104660001203DA02C5029D02B102890275027002CC
:104670006B027E0062025D02580253024E02490242
:1046800044023F023A0221025E0183007E004E0195
:10469000350230022B022602450116015500F100B9
:1046A000300101011B01DD00C900B5009A007A004C
:1046B0007A007A007A007A007A007A007A007A002A
:1046C0007A007A007A007A007A007A007A007A001A
:1046D0007A007A007A008800E501AF01BC019701F9
:1046E00083016D016A0166016301C601D401AB015A
:1046F000B9014A0190F81C332A2B20D0BE4FD7E8CD
:10470000AF3F13F0010600F01783BC4820F08CFD8A
:10471000BB4FD7E8AF3F13F0010600F0B28208208C
:1047200076F0EEFE0C26014600230122B54FB64876
:104730000F60CE71A1F805200B711EF065F884F8AA
:104740001C53BDE8F081836843F400538360F6E7AF
:10475000836843F480538360F1E790F81C33472B60
:10476000EDD0A54FD7E8AF3F13F0010600F0D3839B
:104770000521A24820F018FD0028C9D1DFE790F8F4
:104780001C33322BDBD09E4FD7E8AF3F13F001062E
:1047900000F0CF830C2076F0B3FE0E2601460023F6
:1047A0004E229A4F98480F600E72CA800B711EF00D
:1047B0002BF8C4E790F81C33312BC0D0904FD7E8CA
:1047C000AF3F13F0010600F0C5830C2076F098FE91
:1047D0000E26014600234D228C4FE3E790F81C3350
:1047E000302BACD0864FD7E8AF3F13F0010600F076
:1047F00024830C2076F084FE0E26014600234C22F2
:10480000824FCFE790F81C332F2B98D07C4FD7E8FE
:10481000AF3F13F0010600F04E830C2076F070FEDF
:104820000E26014600234B22784FBBE790F81C333D
:104830002B2B84D0704FD7E8AF3F13F0010600F068
:10484000DD8201216D4820F01FFC78E790F81C33D1
:104850002D2B3FF474AF6A4FD7E8AF3F13F001063A
:1048600000F0FC820C2076F04BFE0E260146002361
:104870004922664F96E7037943F0080303715EE728
:1048800090F81C332E2B3FF45AAF5D4FD7E8AF3F63
:1048900013F0010600F0C0820C2076F031FE0E26E7
:1048A000014600234A22594F7CE790F81C332C2BF9
:1048B0003FF445AF524FD7E8AF3F13F0010600F089
:1048C0000B830C2076F01CFE0E26014600234822A6
:1048D0004E4F67E7037943F0040303712FE74FF668
:1048E000FF7343822BE790F81C33232B3FF427AF51
:1048F000414FD7E8AF3F13F0010600F02B823F484D
:1049000020F06CFC04E7836843F40073836016E7CF
:104910000023C38113E74FF6FF7303820FE70023E1
:1049200003820CE7344FD7E8AF3F13F0010600F0E5
:10493000E681374E94F81C2396F85D39002B40F041
:10494000B1814D2A3FF4FBAE012386F85D39DFE6E5
:1049500090F81C334C2B3FF4F2AEDFF89C80D8E883
:10496000AF3F13F0010700F00382244ED6F8F43C69
:10497000013BC6F8F43CE2E690F81C334B2B3FF4C5
:10498000DEAEDFF87480D8E8AF3F13F0010700F027
:1049900076821A4ED6F8F43C0133C6F8F43CCEE6E3
:1049A0004FF6FF738382CAE690F81C33492B3FF41D
:1049B000C6AE0122D0F89031DA73A9E60023438213
:1049C000BDE690F81C334A2B3FF4B9AE0022D0F874
:1049D0009031DA739CE64FF6FF73C381AFE690F82F
:1049E0001C33022B3FF4ABAE0122D0F89031DA70C9
:1049F0008EE600238382A2E67C520020642D0120F3
:104A00006452002074A00910702B012060A00910CE
:104A1000643D012090F81C33482B3FF490AEBF4F0B
:104A2000D7E8AF3F13F0010600F037820621BC48FB
:104A300020F0BAFB00287FF46BAE80E690F81C33C0
:104A4000072B3FF47CAE0122D0F890315A715FE61B
:104A500090F81C33012B3FF472AE0022D0F8903155
:104A6000DA7055E690F81C33032B3FF468AE02224F
:104A7000D0F89031DA704BE690F81C33062B3FF4F7
:104A80005EAE0022D0F890315A7141E6836843F45B
:104A90008073836053E6037943F0020303714EE6AB
:104AA000037943F00103037149E6836843F400434B
:104AB000836044E6836843F4804383603FE6836811
:104AC00043F0800383603AE6836843F040038360E9
:104AD00035E6836843F02003836030E6836843F063
:104AE000100383602BE6836843F00803836026E6A7
:104AF000836843F00403836021E6836843F0020384
:104B000083601CE6836843F00103836017E690F836
:104B10001C33162B3FF413AE002020F0A7FC0EE64A
:104B2000836843F40063836009E6836843F4806329
:104B3000836004E690F81C33122B3FF400AE774FED
:104B4000D7E8AF3F13F0010600F02081042174483C
:104B500020F02AFB00287FF4DBADF0E590F81C3351
:104B6000112B3FF4ECAD6D4FD7E8AF3F13F00106CA
:104B700000F0288103216A4820F016FB00287FF40A
:104B8000C7ADDCE590F81C330F2B3FF4D8AD634F75
:104B9000D7E8AF3F13F0010600F00681012160481D
:104BA00020F002FB00287FF4B3ADC8E590F81C3379
:104BB000102B3FF4C4AD594FD7E8AF3F13F00106B7
:104BC00000F00E810221564820F0EEFA00287FF412
:104BD0009FADB4E590F81C330E2B3FF4B0ADDFF879
:104BE0003C81D8E8AF3F13F0010700F086814C4EBE
:104BF00096F8193E83F0010386F8193E88E590F88F
:104C00001C330D2B3FF49BADD0F89021D37B83F068
:104C10000103D3737CE590F81C33092B3FF48FAD6F
:104C2000D0F89021D37983F00103D37170E590F827
:104C30001C33082B3FF483AD0222D0F890315A7117
:104C400066E590F81C330B2B3FF479AD0322D0F8C6
:104C500090315A715CE590F81C330A2B3FF46FAD2C
:104C6000D0F89021537A83F00103537250E590F805
:104C70001C330C2B3FF463AD0422D0F890315A71F1
:104C800046E5384690F056FF00283FF448AD254BE6
:104C90002548C3E900669E6093F07CF8384690F0A2
:104CA00065FF3CE54D2A04D1D4E9C83253EA02013C
:104CB00011D173F043FF4FF0FF3C6FF000471B4BE7
:104CC000C31841F100029C4577EB02013CBF6346EB
:104CD0003A46C4E9C8321649486A82423FF62FADC7
:104CE000896A994202D282423FF429AD114BD3E93D
:104CF0000023C4E9C823002386F85D3908E5384657
:104D000090F018FF00283FF414AE054B3846C3E975
:104D100001661E7090F02AFF0BE600BF7C52002057
:104D2000642D0120702B01206D34001080841E0042
:104D300000000B40B0C20A10384690F0FBFE00287D
:104D40003FF4E3AC8C4B3846C3E901661E7090F02B
:104D50000DFFDAE4384690F0EDFE00283FF4CFADC9
:104D6000854B3846C3E901661E7090F0FFFEC6E52C
:104D7000404690F0DFFE804E00283FF4F7AD4046FD
:104D8000C6E90177377090F0F1FEEFE5384690F014
:104D9000D1FE00283FF4DAAE774B3846C3E901660E
:104DA0001E7090F0E3FED1E6384690F0C3FE002876
:104DB0003FF4F4AE704B3846C3E901661E7090F0C4
:104DC000D5FEEBE6384690F0B5FE00283FF4D2AEB3
:104DD000694B3846C3E901661E7090F0C7FEC9E60C
:104DE000384690F0A7FE00283FF4ECAE624B384600
:104DF000C3E901661E7090F0B9FEE3E6384690F014
:104E000099FE00283FF41DAD5B4B3846C3E90166AF
:104E10001E7090F0ABFE14E5384690F08BFE002833
:104E20003FF43AAD554B5648C3E900669E6092F098
:104E3000B1FF384690F09AFE2EE5384690F07AFEA3
:104E400000283FF4D6AC4D4B4D48C3E900669E6048
:104E500092F0A0FF384690F089FECAE4384690F000
:104E600069FE00283FF4FEAC444B4548C3E90066A8
:104E70009E6092F08FFF384690F078FEF2E4404654
:104E800090F058FE3C4E00283FF484AD4046C6E901
:104E90000177377090F06AFE7CE5384690F04AFE64
:104EA00000283FF4C3AD344B3846C3E901661E7099
:104EB00090F05CFEBAE5384690F03CFE00283FF4E6
:104EC000ACAC2E4B2E48C3E900669E6092F062FFA8
:104ED000384690F04BFEA0E4384690F02BFE0028B8
:104EE0003FF4EFAC254B2648C3E900669E6092F084
:104EF00051FF384690F03AFEE3E4404690F01AFE47
:104F00001D4E00283FF474AE4046C6E90177377065
:104F100090F02CFE6CE6384690F00CFE00283FF432
:104F200027AC154B3846C3E901661E7090F01EFE93
:104F30001EE4384690F0FEFD00283FF42BAC0F4BEA
:104F40000F48C3E900669E6092F024FF384690F057
:104F50000DFE1FE4384690F0EDFD00283FF435AC1F
:104F6000064B0748C3E900669E6092F013FF38467F
:104F700090F0FCFD29E400BF642D0120702B01207E
:104F80006D340010D0F890312DE9F0415F7B7FBB8C
:104F90000546044600F5C07602E01834B44224D039
:104FA00094F8A5110029F8D0D4F8A821AB6832EA0A
:104FB0000300F2D194F8A0C128793CEA000EECD1AC
:104FC000B4F8B0E1B5F80C803EEA080EE5D120EA6D
:104FD0000C0023EA02032871AB6028461834FFF75F
:104FE0002BFBB4424FF00107DAD10FB985F81C73DF
:104FF000BDE8F0811A4AF8B51368591C11603BB935
:105000004FF0FF31174AC2E90133C2E9033311609F
:10501000154A1368591C116003B1F8BD134C4020A8
:10502000C4E90033A36076F06BFA8646104D00F1B8
:10503000400605F140072060A660AC460EF1100E58
:10504000BCE80F00BC4505F110054EF8100C4EF8F9
:105050000C1C4EF8082C4EF8043CEED16660F8BDEE
:105060005C52002044520020585200200C91012034
:1050700018A0091038B5064D2C68AC4206D0204661
:1050800024680C2176F044FAAC42F8D138BD00BF58
:10509000D84D002000F00C00042819D0082814D0A6
:1050A00070B5194DD5E8AF3F13F001041DD0174E70
:1050B000336833B3D5E8AF3F13F001040AD030684A
:1050C000BDE8704003681B6B18474FF6FF707047D0
:1050D000002070470C4890F02DFD0028EFD00A48C2
:1050E0003460347190F042FDE9E7284690F022FDEB
:1050F000064E0028DCD028463460347190F036FD2E
:10510000D6E747F6FF7070BD68520020902B012053
:1051100000F00300012819D0022814D070B5194DF1
:10512000D5E8AF3F13F001041DD0174E336833B3F9
:10513000D5E8AF3F13F001040AD03068BDE87040F5
:1051400003681B6B18474FF6FF70704700207047CD
:105150000C4890F0EFFC0028EFD00A48346034711E
:1051600090F004FDE9E7284690F0E4FC064E0028A4
:10517000DCD028463460347190F0F8FCD6E747F66E
:10518000FF7070BD68520020902B0120024B034439
:1051900013F8010C704700BF80A009102DE9F047FB
:1051A00004460D46DFF8F48084B0D8E8AF3F13F032
:1051B000010751D0374EDFF8E880DFF8E89008EBC0
:1051C000050313F8013C19F8052023400CD0002AF0
:1051D00052D03468B4423BD073681B7A434413F80E
:1051E000010C04B0BDE8F0873468002AF2D0EA462A
:1051F000B442CDE900AA029325D06F4601E0B44243
:1052000015D021460B7A2468AB42F8D1B942F6D0CA
:10521000BC42F4D02246384690F072FD029AB36840
:105220000132013BB442009F0292B360E9D157457D
:1052300008BF246807D038463F680C2176F068F92B
:105240005745F8D134680023B44209F80530C3D17A
:10525000002004B0BDE8F087404690F06BFC0D4E96
:105260000028A8D00C48C6E90066B76092F092FD0D
:10527000404690F07BFC9EE70C2076F041F9054912
:10528000057290F04FFD0122B36809F80520134420
:10529000B3609EE7D84D002075500010605200208A
:1052A00080A00910681B012010B504460121FFF7FA
:1052B00075FF02212046FFF771FF03212046FFF70B
:1052C0006DFF2046BDE810400421FFF767BF00BF17
:1052D00004281DD001F00302022A034601F00C014C
:1052E0003ED0032A27D0012A14D105204FF0090C03
:1052F00010B4624C0829227016D00C2934D004292D
:1053000028D0002110465E4B19705DF8044B7047A1
:1053100008467047002210B4584C08294FF004008A
:105320004FF0080C2270E8D10422554B60465DF81E
:10533000044B1A70704720BB0122504B08291A7089
:1053400072D00C2952D004296CD000214C4B10464D
:105350001970704703224A4B5DF8044B1A7070476E
:1053600006204FF00A0CC3E7022B1DD0032B42D1BD
:10537000434B197801BB104600225DF8044B1A70AC
:10538000704702283AD003281AD000203B4B082946
:10539000187064D00C2960D0042000220429D4D1D4
:1053A0000322374B1A707047354B19780029E2D029
:1053B000032908BF6046A8E7032918BF6046A4E791
:1053C0002E4B1A78002A3FD0012A50D006204FF0E9
:1053D0000A0C0222082929D00C29DFD1284B197880
:1053E000002948D0032918BF604670471046244B57
:1053F00000221A7070471046214BBDE71F48027803
:10540000CAB1012A2ED005204FF0090C012208292B
:105410000CD00C29C2D11A4B197861B3032908BFEB
:10542000604670470520BBE74FF0090C0422144B7F
:1054300060461A7070470829027010D00C29ABD151
:105440004FF0080C0420E6E708291A7007D00C2951
:10545000A2D104204FF0080CC0E7094BC8E74FF079
:10546000080CE3E71A4606204FF00A0CCFE70520A8
:105470004FF0090CAEE71046BAE700BFBB38022078
:10548000BA38022040687047034B186818B1996811
:10549000091A76F03DB870479C2B01200B682DE966
:1054A000F0479B68064608460C469847054630B9C3
:1054B000236820465B6898472846BDE8F0870820A7
:1054C00076F01EF8074623682046DB689847736825
:1054D000B2683C60934205D043F8047B2846736071
:1054E000BDE8F0876FF06042D6F80090A3EB0904A6
:1054F000B2EBA40F4FEAA4032FD0012B194638BFFB
:1055000001215B1826D2934228BF13464FEA830835
:10551000404675F0F5FF002C075104F10407824660
:10552000074408DCB9F1000F10D10AEB0803C6E903
:1055300000A7B360C0E74946224693F08FFDB168EB
:10554000A1EB0901484675F0E3FFEEE7B168A1EB76
:105550000901F7E7DFF80C80DAE7014890F01CFD5D
:1055600084A00910FCFFFF7F2DE9F84F0B68064669
:105570009B6808460C469847054630B92368204684
:105580005B6898472846BDE8F88F082075F0B8FF9B
:10559000804623682046DB6898477368B268C8F87D
:1055A000004093422AD043F8048B7360344FD7E80D
:1055B000AF3F13F001060BD02368324A5B6A934277
:1055C00018D16168304820F00DFA2846BDE8F88F00
:1055D000384690F0AFFA0028EED02B4B2B48C3E9A9
:1055E0000066C3E902661E6192F0D4FB384690F073
:1055F000BDFAE1E7204698470146E3E76FF06042D5
:10560000D6F800A0A3EB0A07B2EBA70F4FEAA70357
:1056100032D0012B194638BF01215B1829D29342A1
:1056200028BF13464FEA8309484675F069FF002FEB
:1056300040F8078007F10408834680440ADCBAF189
:10564000000F12D10BEB0903C6F80480C6F800B0B6
:10565000B360ABE751463A4693F000FDB168A1EB69
:105660000A01504675F054FFECE7B168A1EB0A015E
:10567000F7E7DFF82090D7E7054890F08DFC00BFF2
:1056800070520020855400109C2B0120895400107A
:1056900084A00910FCFFFF7F38B5D0E900439C428D
:1056A00009D0054654F8043B186803681B6A9847FC
:1056B0006B689C42F6D138BD38B5D0E900439C42B6
:1056C00009D0054654F8043B186803685B6998479D
:1056D0006B689C42F6D138BD38B5D0E900439C4296
:1056E00009D0054654F8043B186803681B699847BD
:1056F0006B689C42F6D138BD70B5D0E900439C423E
:105700000BD005460E4654F8043B31461868036832
:105710009B6998476B689C42F5D170BDF0B585B028
:1057200004AC04E90E00037E9DF805500446AB422C
:10573000BDF8066076D19A4B41695A6A0069914278
:105740006ED89B6A8342C0F0D980D4F81D209DF8A2
:105750000430C4F81920002203F0010161F30702AC
:10576000C3F3400161F30F22C3F3800161F31742D9
:10577000C3F3C00363F31F62033DC4F81D20032D70
:105780002CD8DFE805F0A88B6F02DDE90252002D6E
:1057900040F0B880638B217F83F4807383F0010332
:1057A0000029E38312BF2B4601231546627E84F84D
:1057B000203082F00102627773F0C0F94FF47A73FF
:1057C0004FF0FF366FF00042E5FB0301864272EBBB
:1057D000010301D230461146C4E90401637F002B66
:1057E0003DD094F8213013FB03F3DB439BB2A27F3F
:1057F000A3808AB394F8213013FB03F3DB439BB2FD
:10580000E27FE3802AB394F8213013FB03F3DB43F8
:105810009BB294F820202381A2B94FF6FF736381D5
:1058200005B0F0BD0027C0F81970C0F81D7073F006
:1058300085F9FF23C4E9040184F82270257684F8F1
:10584000213082E794F8213013FB03F3DB439BB252
:10585000E5E74FF6FF73DCE74FF6FF73D0E74FF64F
:10586000FF73C4E794F8222094F82130002A5FD017
:105870000533DBB2FF2B84F8213072D073F05EF970
:1058800044F620634FF0FF356FF00042C01841F13D
:105890000001854272EB01039ED219E0637E002B6A
:1058A00067D1A27E002A6ED1E37E002B6FD1227FCA
:1058B000002A70D173F042F94FF47A734FF0FF353C
:1058C0006FF00042E6FB0301854272EB010383D2D5
:1058D0002846114680E7637E0BB100236377A37EE1
:1058E0000BB10023A377E37E0BB10023E377237F83
:1058F000002BDFD0002384F82030DBE791427FF4D7
:1059000024AF8DE7F2B9637E13B101232A46637792
:10591000A37E13B101232A46A377E37E13B10123AB
:105920002A46E377237F03B3012384F8203043E73B
:10593000053BDBB284F82130002B9FD1012384F892
:1059400022309BE7638B617E83F4807383F00103D5
:10595000E383237F81F00101617743B91546012379
:10596000E3E7002384F8223088E7154624E7002384
:10597000DBE700230121C4F81D30012201F00303FD
:1059800023445A7796E70221C4F81D30F5E7032136
:10599000C4F81D20F1E70421C4F81D30EDE700BF75
:1059A00000000B408A228C232DE9F041471E02FBA8
:1059B00001F403FB07F7DFF84080E519454482B0A6
:1059C000E978064678F00CFC18B9002002B0BDE872
:1059D000F0810C343C4408EB04020024E9782B8964
:1059E0003046CDE9004478F041FC0028EED1304645
:1059F000E97878F01BFCE8E7A85600202DE9F04F85
:105A00008A2417468C229A46431E02FB03F804FBA5
:105A100001F6DFF88CB006EB08045C44628985B0BF
:105A200052450DD24FF0E023D3F8F03DDB0705D40B
:105A30004FF00009484605B0BDE8F08F00BEF7E71B
:105A4000054677F065FD21798146284678F080FC8F
:105A50000390B9F1000FEBD021790029E8D000289C
:105A6000E6D1284678F0BCFB81460028E0D04C36D1
:105A700046445E4439465246304693F0EFFA039866
:105A800021795346CDE900003246284678F0EEFBF6
:105A90000028CFD12846217978F0C8FBCAE700BF9B
:105AA000A85600208C2238B5431E02FB03F30D4C90
:105AB000E25C8A4208D38A2202FB01331C4421792A
:105AC000E37805460B4306D138BD00214FF0FF3087
:105AD00078F066FB2179284678F03AFC0028F4D16A
